:0400000002001132B7
:03000B000201DC13
:03006A0002000E83
:03000E000200E805
:20006D0075B1677E007F01EE24FFFCEF34FFFD8C068D07EC4D70F0E5B130E7FB75B2882284
:20008D00759850758920758DDCD28E438E10438780D29943A4012275FFDE75FFAD12006D08
:2000AD0012008D43E10443E34022AF8210990280FB8F992210980280FBAF998F82C00712EC
:2000CD0000B7D0078F82222098057582FF800BC2988599821200B7859982221200A47582E2
:2000ED00201200B71201C21201C91201CD7445C0E07408C0E07480C0E012022A1581158106
:20010D0015811200C1858214746CC0E07408C0E07480C0E012022A158115811581E4F5083D
:20012D00F509F50CF50DF50EF50FF510F511F512F513D28CC3E50894F0E50994D2504020FA
:20014D00A2F28508108509111201F530A2FD050CE4B50C02050D8508128509131201F5AE2B
:20016D0012AF13EEC39510FEEF9511FFC3748C9E740A9F50BF050EE4B50EB9050F80B5C0AD
:20018D000CC00D74A7C0E07408C0E07480C0E012022AE58124FBF581C00EC00F74C1C0E063
:2001AD007408C0E07480C0E012022AE58124FBF5810200FA2253A6FD43A0022243A882229F
:2001CD00438E085389F0C28C758A00758C0022C0E0C0D00508E4B508020509050AE4B50A5D
:1901ED0002050BD0D0D0E032E4F50AF50BC3E50A9436E50B940040F5222B
:20084500456E7465722061206B6579626F6172642063686172616374657220746F206265EC
:2008650067696E200D0A00507573682074686520627574746F6E206173206D616E792074E4
:20088500696D657320617320796F75206C696B6520696E203230207365636F6E6473200DBA
:2008A5000A000D4E756D626572206F6620707265737365733A202564200A0D000D4E756D42
:2008C500626572206C6F6E676572207468616E206F6E65207365636F6E643A202564200A5D
:0208E5000D0004
:06004000E478FFF6D8FD94
:20001E007900E94400601B7A009008F2780175AF00E493F2A308B8000205AFD9F4DAF27570
:02003E00AFFF12
:200046007800E84400600A790175AF00E4F309D8FC7800E84400600C7900900001E4F0A3A9
:04006600D8FCD9FAEF
:20020600C0168581161200B7D0162285823185833285F033E4F52EF52FF53085153490024B
:2002260006020301C016858116E51624FBFF8F34E4F52EF52FF530E51624FBF88631088637
:0D02460032088633900206120301D0162202
:20025300AF82C024C025C0261202608007C022C0238F8222158115811581052CE4B52C02FE
:20027300052D22AF8274302FFF24C6500A74072FFF3000034307208F82020253E582FFC4F8
:20029300540FF582C007120276D007740F5FF58202027685821785271885281985291A8581
:2002B3002A1BAA2B751C20EA2AFAE51B235401FF8A064EFAE5182518F518E51933F519E598
:2002D3001A33F51AE51B33F51BC3EA95174008EAC39517FA431801E51C14FF8F1C70C885A0
:2002F3001827851928851A29851B2A8A2B22858222858323852E24852F25853026E4F52C99
:20031300F52DAD31AE32AF338D828E838FF0120825FC74012DF531E43EF5328F33ECFF7000
:2003330003020806BF250280030207FEC201C202C203C204C205C206C207C20875350075D4
:2003530036007537FFAA31AB32AE338A828B838EF0120825FFA3AA82AB838A318B328E3304
:20037300BF25078F821202538098BF3000402DEF24C6402874FFB53712E53675F00AA42F84
:20039300FC24D0F53670C4D20280C0E53775F00AA4FC8F05ED2C24D0F53780AFBF2E0A7455
:2003B300FFB537A775370080A2BF6100400CEF248540075307DFD2008002C200BF200280CF
:2003D3006DBF2B028063BF2D028059BF42028063BF43028068BF44030205A4BF4603020575
:2003F300BABF480302035EBF49030205A4BF4A0302035EBF4C028040BF4F030205ABBF50FF
:2004130003020539BF5302805ABF540302035EBF55030205B0BF58030205B5BF5A0302035A
:200433005E0205BED20102035ED20302035ED20402035ED20602035ED20702035E30060A28
:20045300E53414F9893487078011E53424FEFE8E348E018705098706198D078F82120253B6
:200473000205C7E53424FDFE8E348E01870409870509870619198C278D288E298C828D83ED
:200493008EF012080DAD82AE8374FFB537028D37200126C3ED95365020E536C39DF536AE99
:2004B300368E041EEC6010758220C006C005120253D005D00680EA8E36AE37852782852845
:2004D300838529F0120825FCFF602F8E041EC374808CF063F08095F050208F82C006C005D8
:2004F300120253D005D006AA27AB28AC290ABA00010B8A278B288C2980C12001030205C742
:20051300C3ED953640030205C7E536C39DF536AE368E041EEC70030205C5758220C00612E8
:200533000253D00680EBE53424FDFC8C348C01870209870309870419198A278B288C29ACE8
:2005530029BC800040047F438014BC600040047F50800BBC400040047F4980027F588F825D
:20057300C00712025375823A120253758230120253758278120253D007BF4902800BBF50C3
:2005930002800685288212028F85278212028F8023D20575350A801C753508801775350A56
:2005B3008012753510800DD20880098F8212025380028E3630085CE53424FCFE8E348E0112
:2005D30087020987030987040987061919198A278B288C298E2A7527E775280875298085DB
:2005F300273985283A85293B74012539FAE4353AFCAE3B8A278C288E29853982853A838590
:200613003BF0120825FEFF70030203158F8212025380CCE535700302031575384130062D17
:20063300E53414F9893487048C027B007C007E008A278B288C298E2A200566AA277B007C12
:20065300007E008A278B288C298E2A8054300721E53424FCFE8E348E0187020987030987D8
:20067300040987061919198A278B288C298E2A8030E53424FEFE8E348E018704098706193D
:20069300EE3395E0FBFA8C278E288B298A2A200510AA27AB287C007E008A278B288C298E71
:2006B3002A300522E52A30E71BC3E49527FAE49528FBE49529FCE4952AFE8A278B288C2914
:2006D3008E2A8002C205D209A9387E00752B00853582C006C0011202A6D001D00620090BD4
:2006F300E52BC4FCE7FB4CF7198002A72B0EB209E52745284529452A70D289388E05E536B5
:200713007003753601200224200121ED04FEAC36C3EE9C5015758220C006C005C004120222
:2007330053D004D005D0061C80E68C3630050E75822DC005120253D00515368023ED6020CD
:2007530030030E75822BC005120253D0051536800F30040C758220C005120253D0051536A5
:20077300200126AE368E041EC3ED9C502F3002067B307C0080047B207C008B82C006C0052E
:20079300120253D005D00680DCC3ED95365008E536C39DF536800775360080028E36A93806
:2007B3008D068E051EED6026B20920090A09E7C4540FFD8D2B80078705740F5DF52B852BF2
:2007D30082C006C001120276D001D00680D4200103020315AE368E051EED700302031575B6
:1A07F3008220C006120253D00680EB8F82120253020315852C82852D8322C0
:0B08E7003C4E4F20464C4F41543E0059
:18080D00AA82AB831208256003A380F8C3E5829AF582E5839BF58322E4
:0D001100758141120841E582600302000E76
:1C08250020F71430F6148883A88220F507E6A88375830022E280F7E49322E022E2
:04084100758200229A
:00000001FF
