:03000000020006F5
:03005F0002000399
:030003000200DD1B
:2000620075B1677E007F01EE24FFFCEF34FFFD8C068D07EC4D70F0E5B130E7FB75B288228F
:20008200759850758920758DDCD28E438E10438780D29943A4012275FFDE75FFAD1200621E
:2000A20012008243E10443E34022AF8210990280FB8F992210980280FBAF998F82C0071202
:2000C20000ACD0078F82222098057582FF800BC2988599821200AC8599822212009975820E
:2000E200201200AC1200FFC3E4950874808509F063F08095F050ED12014E80E8227401C0A4
:20010200E07408C0E07480C0E01201E61581158115811200B685820E7431B50E0512013401
:20012200800F7432B50E051201418005E4F508F50922750C12750D0075081275090022752D
:200142000C0E750D0175080E75090122C008C0097433C0E07408C0E07480C0E01201E6E56E
:200162008124FBF5817452C0E07408C0E07480C0E01201E6158115811581E4F50AF50BC3F0
:20018200E508950AE5096480850BF063F08095F0402D850A0C850B0DC00CC00DC00CC00D50
:2001A2007463C0E07408C0E07480C0E01201E6E58124F9F581050AE4B50AC4050B80C0223C
:200801000D0A20656E746572203120746F20636F756E7420746F203138206F722032207472
:200821006F20636F756E7420746F20323730200D0A004D6178696D756D20636F756E7420C5
:2008410076616C7565206973202575200A0A0D2000446563696D616C200920686578200AFC
:110861000D002020257520090920202578200A0D0059
:06003500E478FFF6D8FD9F
:200013007900E94400601B7A0090087D780175AF00E493F2A308B8000205AFD9F4DAF275F0
:02003300AFFF1D
:20003B007800E84400600A790175AF00E4F309D8FC7800E84400600C7900900001E4F0A3B4
:04005B00D8FCD9FAFA
:2001C200C0108581101200ACD0102285823185833285F033E4F52EF52FF530850F349001B4
:2001E200C20202BDC010858110E51024FBFF8F34E4F52EF52FF530E51024FBF8863108861D
:0D020200320886339001C21202BDD01022D6
:20020F00AF82C024C025C02612021C8007C022C0238F8222158115811581052CE4B52C0286
:20022F00052D22AF8274302FFF24C6500A74072FFF3000034307208F8202020FE582FFC480
:20024F00540FF582C007120232D007740F5FF5820202328582118527128528138529148565
:20026F002A15AA2B751620EA2AFAE515235401FF8A064EFAE5122512F512E51333F513E50C
:20028F001433F514E51533F515C3EA95114008EAC39511FA431201E51614FF8F1670C8851A
:2002AF00122785132885142985152A8A2B22858222858323852E24852F25853026E4F52CF5
:2002CF00F52DAD31AE32AF338D828E838FF01207E1FC74012DF531E43EF5328F33ECFF708A
:2002EF00030207C2BF250280030207BAC201C202C203C204C205C206C207C20875350075A2
:20030F0036007537FFAA31AB32AE338A828B838EF01207E1FFA3AA82AB838A318B328E338D
:20032F00BF25078F8212020F8098BF3000402DEF24C6402874FFB53712E53675F00AA42F0C
:20034F00FC24D0F53670C4D20280C0E53775F00AA4FC8F05ED2C24D0F53780AFBF2E0A7499
:20036F00FFB537A775370080A2BF6100400CEF248540075307DFD2008002C200BF20028013
:20038F006DBF2B028063BF2D028059BF42028063BF43028068BF4403020560BF46030205FD
:2003AF0076BF480302031ABF4903020560BF4A0302031ABF4C028040BF4F03020567BF5097
:2003CF00030204F5BF5302805ABF540302031ABF550302056CBF5803020571BF5A030203B0
:2003EF001A02057AD20102031AD20302031AD20402031AD20602031AD20702031A30060A49
:20040F00E53414F9893487078011E53424FEFE8E348E018705098706198D078F8212020F3E
:20042F00020583E53424FDFE8E348E01870409870509870619198C278D288E298C828D8375
:20044F008EF01207C9AD82AE8374FFB537028D37200126C3ED95365020E536C39DF536AE22
:20046F00368E041EEC6010758220C006C00512020FD005D00680EA8E36AE378527828528CD
:20048F00838529F01207E1FCFF602F8E041EC374808CF063F08095F050208F82C006C00561
:2004AF0012020FD005D006AA27AB28AC290ABA00010B8A278B288C2980C12001030205830E
:2004CF00C3ED95364003020583E536C39DF536AE368E041EEC7003020581758220C00612B5
:2004EF00020FD00680EBE53424FDFC8C348C01870209870309870419198A278B288C29AC71
:20050F0029BC800040047F438014BC600040047F50800BBC400040047F4980027F588F82A1
:20052F00C00712020F75823A12020F75823012020F75827812020FD007BF4902800BBF5017
:20054F0002800685288212024B85278212024B8023D20575350A801C753508801775350A22
:20056F008012753510800DD20880098F8212020F80028E3630085CE53424FCFE8E348E019A
:20058F0087020987030987040987061919198A278B288C298E2A7527727528087529808594
:2005AF00273985283A85293B74012539FAE4353AFCAE3B8A278C288E29853982853A8385D4
:2005CF003BF01207E1FEFF70030202D18F8212020F80CCE53570030202D175381C30062D94
:2005EF00E53414F9893487048C027B007C007E008A278B288C298E2A200566AA277B007C57
:20060F00007E008A278B288C298E2A8054300721E53424FCFE8E348E01870209870309871C
:20062F00040987061919198A278B288C298E2A8030E53424FEFE8E348E0187040987061981
:20064F00EE3395E0FBFA8C278E288B298A2A200510AA27AB287C007E008A278B288C298EB5
:20066F002A300522E52A30E71BC3E49527FAE49528FBE49529FCE4952AFE8A278B288C2958
:20068F008E2A8002C205D209A9387E00752B00853582C006C001120262D001D00620090B5C
:2006AF00E52BC4FCE7FB4CF7198002A72B0EB209E52745284529452A70D289388E05E536F9
:2006CF007003753601200224200121ED04FEAC36C3EE9C5015758220C006C005C004120267
:2006EF000FD004D005D0061C80E68C3630050E75822DC00512020FD00515368023ED60209A
:20070F0030030E75822BC00512020FD0051536800F30040C758220C00512020FD005153671
:20072F00200126AE368E041EC3ED9C502F3002067B307C0080047B207C008B82C006C00572
:20074F0012020FD005D00680DCC3ED95365008E536C39DF536800775360080028E36A9388E
:20076F008D068E051EED6026B20920090A09E7C4540FFD8D2B80078705740F5DF52B852B36
:20078F0082C006C001120232D001D00680D42001030202D1AE368E051EED70030202D175C8
:1A07AF008220C00612020FD00680EB8F8212020F0202D1852C82852D8322D1
:0B0872003C4E4F20464C4F41543E00CE
:1807C900AA82AB831207E16003A380F8C3E5829AF582E5839BF583226E
:0D00060075813B1207FDE5826003020003D7
:1C07E10020F71430F6148883A88220F507E6A88375830022E280F7E49322E02227
:0407FD0075820022DF
:00000001FF
