:040000000200513277
:01000B0032C2
:0100130032BA
:01001B0032B2
:0100230032AA
:01002B0032A2
:01003300329A
:01003B003292
:01004300328A
:03004B0002066B3F
:2000AA00753600753748753834753907753A04753B6F753C00753D48753E00753F707540F8
:0700CA00E075410002004E49
:03004E000205D7D1
:2000D10075B1677E007F01EE24FFFCEF34FFFD8C068D07EC4D70F0E5B130E7FB75B2882220
:2000F100759850758920758DDCD28E438E10438780D29943A4012275FFDE75FFAD1200D140
:200111001200F143E10443E34022AF8210990280FB8F992210980280FBAF998F82C0071223
:20013100011BD0078F82222098057582FF800BC29885998212011B85998222C00F85810F7C
:20015100E50F24FBF886820886830886F0120E76E5828583F045F070028062E50F24FBFF5C
:200171008F0BE50F24FBF8860808860908860A90000175F0001207E490000175F000120E03
:2001910076AE827F00C3EF9E501FEF2401F582E43400F583E0FDBD0A0DEF2401F582E434FB
:2001B10000F583740DF00F80DC752D01752E00752F00752C008E307582C612045DD00F2260
:2001D10075270074C0252740177532277533007534407531007535017582C61204D780E3DE
:2001F10075280C752D28752E00752F40752C007530017582C612045D2275322A753300756D
:2002110034407531017535027582C61204D774FFB52A05758200805F7F008F068EF005F0A8
:200231007C017D008006EC2CFCED33FDD5F0F7AA2A7B00EA5204EB5205EC4D600774312FFB
:20025100F58280330E8E07BE080040D0E52B30E0057582398021E52B30E10575822A801716
:20027100E52B30E205758230800DE52B30E30575822380037582FF22AF82E4FDFEEF701D29
:20029100C006C00574AEC0E0740EC0E07480C0E012014C158115811581D005D006C006C0F8
:2002B100057408C0E0E4C0E07408C0E0E4C0E07408C0E0E4C0E07408C0E0E4C0E07408C06C
:2002D100E0E4C0E074C4C0E0740EC0E07480C0E012014CE58124F3F58190A12075F007E428
:2002F1001203F8D005D0067F00C007C006C00512020AAC82D005D006D0078C03BCFF0280CA
:2003110003BB2A17902710E4F5F0C007C006C0051203F8D005D006D00780CEBB232AC00640
:20033100C00512020AAC82D005D006BC2313902710E4F5F0C006C0051203F8D005D00680AB
:20035100DD8D828E830203F78B027C00C007C006C005C004C003C002C002C00474D4C0E081
:20037100740EC0E07480C0E012014CE58124FBF581D002D003D004D005D0068D118E12906A
:20039100000AC004C003C002120757A882A983D002D003D004D007EA28F8EC39F9E824D0DF
:2003B100FDE934FFFEC007C006C005C00312020AAC82D003D005D006D007ECB5031B9027E9
:2003D10010E4F5F0C007C006C005C0031203F8D003D005D006D00780CC0FBF050050030248
:2003F10002FA8D828E8322AC82AD83AEF0FF780079007A007B00C3E89CE99DEA9EEB9F509E
:200411000F08B8000909B900050ABA00E90B80E62220C7FDD2C530C3FDC2C5C2C32285824C
:20043100C210C30280FB228582C2D2C410C30280FB2230C3FD85C282C2C32230C3FDAFC2E5
:20045100C2C3D2C410C30280FB8F8222AF82C2AFC007120422D00774FE5FF58212042F8563
:200471002C8212042F7F00AD307E001DBDFF011E8F037C00C3EB9DEC64808EF063F0809597
:20049100F0501FEF252DFCE4352EFDAE2F8C828D838EF0120E8EF582C00712042FD0070FDB
:2004B10080C5AE307F001EBEFF011FEE252DFEEF352EFFAD2F8E828F838DF0120E8EF5825F
:2004D100120438D2AF22AF82C2AFC007120422D00774FE5FF582C00712042F853182120400
:2004F10038120422D00774014FF58212042F7F00AD357E001DBDFF011E8F037C00C3EB9DF4
:20051100EC64808EF063F08095F0502ED2C2EF2532FCE43533FDAE34C007C006C005C0048F
:20053100120443AB82D004D005D006D0078C828D838EF0EB12073C0F80B6C2C2AE357F00C7
:200551001EBEFF011FEE2532FEEF3533FFAD34C007C006C00512044CAC82D005D006D007B1
:200571008E828F838DF0EC12073CD2AF22752223752300752310752400752D22752E007578
:200591002F40752C2075300175823012045D22752204752D22752E00752F40752C23753069
:2005B1000175823A12045D75226B752300752400752D22752E00752F40752C20753001752B
:2005D100823A12045D2212010875822012011B12064E12065212065612066574D7C0E0743F
:2005F1000EC0E07480C0E012089315811581158185363C85373DE54260FC12071E85824345
:20061100858344754551754600752D45752E00752F40752C0075300185408212045D754291
:2006310000C043C0447400C0E0740FC0E07480C0E0120893E58124FBF58180BA2243A508E3
:200651002275E1272275D98175D84043E608D2AF75DDC222D2C675CF9322C0E0C007C006C6
:20067100C005C004C0D075D000AC3EAD3FE4FEFF74FFC39CFC74FF9DFDE49EFEE49FFF8CEB
:20069100E98DF9C2DF0541E54124FB5006754201754100D0D0D004D005D006D007D0E03212
:2006B100120125AF82BF641E74C8253CF53CE4353DF53DC3E53A953CE53B953D5028853A4D
:2006D1003C853B3D8020BF621DE53C2438F53CE53D34FFF53DC3E53C9538E53D95395006C6
:2006F10085383C85393DC03CC03D7405C0E0740FC0E07480C0E0120893E58124FBF5817410
:20071100FFC3953CF5ED74FF953DF5FD2275324B75330075344075310175350185408212CC
:0B07310004D7AE4B7F008E828F832226
:200EAE000A54797065206469676974733B20656E6420772F23002020202020256325632584
:200ECE00632563256300256300456D62656464656420436F6E74726F6C2050756C7365775E
:200EEE00696474682043616C6962726174696F6E0A000D25640A000D50573A2025750A0057
:06008000E478FFF6D8FD54
:20005E007900E94400601B7A00900F19785175AF00E493F2A308B8000205AFD9F4DAF275B2
:02007E00AFFFD2
:1B073C0020F71130F6138883A88220F509F6A8837583002280FEF280F5F022BC
:1D075700E5828511F0A4C582C0F08512F0A4D0F025F0C5838511F0A42583F5832249
:20077400C00F85810FC082058105810581E50F24FBF8A90F0909E6F70809E6F70809E6F71F
:20079400A80F080886820886830886F0120E8EFAA3120E8EFBA3120E8EFF74012AFCE43BE9
:2007B400FD8F06A80F080886820886830886F0EC12073CA3ED12073CA3EE12073C8A828B92
:2007D400838FF0A80F08E612073C850F81D00F2285820C85830D85F00E75580C755900752C
:2007F4005A4085085B85095C850A5D850B5E90077412096AAE82AF83AB0CAC0DAD0E8B8275
:200814008C838DF0E412073C8E828F8322C00F85810FE50F24F8FF8F5EE50F24FBFF8F58E2
:20083400755900755A40E50F24F8F8865B08865C08865D90077412096AAE82AF83E50F24FF
:1B085400FBF886030886040886058B828C838DF0E412073C8E828F83D00F22F3
:200086007800E84400600A790175AF00E4F309D8FC7850E84400600C7901900001E4F0A318
:0400A600D8FCD9FAAF
:20086F00C00F85810F12011BD00F2285825B85835C85F05DE4F558F559F55A85105E900865
:20088F006F02096AC00F85810FE50F24FBFF8F5EE4F558F559F55AE50F24FBF8865B08863A
:0D08AF005C08865D90086F12096AD00F2268
:2008BC00AF82C04EC04FC0501208C98007C04CC04D8F82221581158115810556E4B55602FA
:2008DC00055722AF8274302FFF24C6500A74072FFF3000034307208F820208BCE582FFC4F0
:2008FC00540FF582C0071208DFD007740F5FF5820208DF85821185511285521385531485CE
:20091C005415AA55751620EA2AFAE515235401FF8A064EFAE5122512F512E51333F513E504
:20093C001433F514E51533F515C3EA95114008EAC39511FA431201E51614FF8F1670C88566
:20095C0012518513528514538515548A552285824C85834D85584E85594F855A50E4F556F5
:20097C00F557AD5BAE5CAF5D8D828E838FF0120E8EFC74012DF55BE43EF55C8F5DECFF70FC
:20099C0003020E6FBF25028003020E67C201C202C203C204C205C206C207C208755F00755C
:2009BC0060007561FFAA5BAB5CAE5D8A828B838EF0120E8EFFA3AA82AB838A5B8B5C8E5DD6
:2009DC00BF25078F821208BC8098BF3000402DEF24C6402874FFB56112E56075F00AA42F52
:2009FC00FC24D0F56070C4D20280C0E56175F00AA4FC8F05ED2C24D0F56180AFBF2E0A7468
:200A1C00FFB561A775610080A2BF6100400CEF248540075307DFD2008002C200BF2002800B
:200A3C006DBF2B028063BF2D028059BF42028063BF43028068BF4403020C0DBF4603020C8E
:200A5C0023BF48030209C7BF4903020C0DBF4A030209C7BF4C028040BF4F03020C14BF5068
:200A7C0003020BA2BF5302805ABF54030209C7BF5503020C19BF5803020C1EBF5A03020927
:200A9C00C7020C27D2010209C7D2030209C7D2040209C7D2060209C7D2070209C730060AB5
:200ABC00E55E14F9895E87078011E55E24FEFE8E5E8E018705098706198D078F821208BC30
:200ADC00020C30E55E24FDFE8E5E8E01870409870509870619198C518D528E538C828D833C
:200AFC008EF0120E76AD82AE8374FFB561028D61200126C3ED95605020E560C39DF560AEE9
:200B1C00608E041EEC6010758220C006C0051208BCD005D00680EA8E60AE61855182855294
:200B3C00838553F0120E8EFCFF602F8E041EC374808CF063F08095F050208F82C006C005CF
:200B5C001208BCD005D006AA51AB52AC530ABA00010B8A518B528C5380C1200103020C30F7
:200B7C00C3ED95604003020C30E560C39DF560AE608E041EEC7003020C2E758220C00612F1
:200B9C0008BCD00680EBE55E24FDFC8C5E8C01870209870309870419198A518B528C53AC38
:200BBC0053BC800040047F438014BC600040047F50800BBC400040047F4980027F588F82C4
:200BDC00C0071208BC75823A1208BC7582301208BC7582781208BCD007BF4902800BBF5098
:200BFC000280068552821208F88551821208F88023D205755F0A801C755F088017755F0A37
:200C1C008012755F10800DD20880098F821208BC80028E6030085CE55E24FCFE8E5E8E018B
:200C3C0087020987030987040987061919198A518B528C538E5475510E75520F7553808517
:200C5C00516385526485536574012563FAE43564FCAE658A518C528E5385638285648385D4
:200C7C0065F0120E8EFEFF700302097E8F821208BC80CCE55F700302097E75621C30062D93
:200C9C00E55E14F9895E87048C027B007C007E008A518B528C538E54200566AA517B007C7D
:200CBC00007E008A518B528C538E548054300721E55E24FCFE8E5E8E01870209870309876D
:200CDC00040987061919198A518B528C538E548030E55E24FEFE8E5E8E01870409870619D2
:200CFC00EE3395E0FBFA8C518E528B538A54200510AA51AB527C007E008A518B528C538E88
:200D1C0054300522E55430E71BC3E49551FAE49552FBE49553FCE49554FE8A518B528C532A
:200D3C008E548002C205D209A9627E00755500855F82C006C00112090FD001D00620090B4C
:200D5C00E555C4FCE7FB4CF7198002A7550EB209E55145524553455470D289628E05E560F5
:200D7C007003756001200224200121ED04FEAC60C3EE9C5015758220C006C005C004120859
:200D9C00BCD004D005D0061C80E68C6030050E75822DC0051208BCD00515608023ED602032
:200DBC0030030E75822BC0051208BCD0051560800F30040C758220C0051208BCD005156004
:200DDC00200126AE608E041EC3ED9C502F3002067B307C0080047B207C008B82C006C00595
:200DFC001208BCD005D00680DCC3ED95605008E560C39DF560800775600080028E60A9622C
:200E1C008D068E051EED6026B20920090A09E7C4540FFD8D5580078705740F5DF555855504
:200E3C0082C006C0011208DFD001D00680D420010302097EAE608E051EED700302097E75CF
:1A0E5C008220C0061208BCD00680EB8F821208BC02097E85568285578322AF
:0B0F0E003C4E4F20464C4F41543E002B
:180E7600AA82AB83120E8E6003A380F8C3E5829AF582E5839BF5832206
:0D005100758165120EAAE582600302004E63
:1C0E8E0020F71430F6148883A88220F507E6A88375830022E280F7E49322E02273
:040EAA00758200222B
:00000001FF
