:040000000200513277
:01000B0032C2
:0100130032BA
:01001B0032B2
:0100230032AA
:01002B0032A2
:01003300329A
:01003B003292
:01004300328A
:03004B000206D1D9
:2000AA00753600753748753834753907753A04753B6F753C00753D48753E00753F707540F8
:1100CA00E0754100754BC0E4F550F551F55202004E09
:03004E000205E1C7
:2000DB0075B1677E007F01EE24FFFCEF34FFFD8C068D07EC4D70F0E5B130E7FB75B2882216
:2000FB00759850758920758DDCD28E438E10438780D29943A4012275FFDE75FFAD1200DB2C
:20011B001200FB43E10443E34022AF8210990280FB8F992210980280FBAF998F82C007120F
:20013B000125D0078F82222098057582FF800BC29885998212012585998222C00F85810F5E
:20015B00E50F24FBF886820886830886F0120EE1E5828583F045F070028062E50F24FBFFE7
:20017B008F0BE50F24FBF8860808860908860A90000175F00012084F90000175F000120E8D
:20019B00E1AE827F00C3EF9E501FEF2401F582E43400F583E0FDBD0A0DEF2401F582E43486
:2001BB0000F583740DF00F80DC752D01752E00752F00752C008E307582C6120467D00F224C
:2001DB0075270074C0252740177532277533007534407531007535017582C61204E180E3CA
:2001FB0075280C752D28752E00752F40752C007530017582C61204672275322A7533007559
:20021B0034407531017535027582C61204E174FFB52A05758200805F7F008F068EF005F094
:20023B007C017D008006EC2CFCED33FDD5F0F7AA2A7B00EA5204EB5205EC4D600774312FF1
:20025B00F58280330E8E07BE080040D0E52B30E0057582398021E52B30E10575822A80170C
:20027B00E52B30E205758230800DE52B30E30575822380037582FF22AF82E4FDFEEF701D1F
:20029B00C006C0057419C0E0740FC0E07480C0E0120156158115811581D005D006C006C078
:2002BB00057408C0E0E4C0E07408C0E0E4C0E07408C0E0E4C0E07408C0E0E4C0E07408C062
:2002DB00E0E4C0E0742FC0E0740FC0E07480C0E0120156E58124F3F58190A12075F007E4A8
:2002FB00120402D005D0067F00C007C006C005120214AC82D005D006D0078C03BCFF0280AB
:20031B0003BB2A17902710E4F5F0C007C006C005120402D005D006D00780CEBB232AC0062B
:20033B00C005120214AC82D005D006BC2313902710E4F5F0C006C005120402D005D006808C
:20035B00DD8D828E830204018B027C00C007C006C005C004C003C002C002C004743FC0E001
:20037B00740FC0E07480C0E0120156E58124FBF581D002D003D004D005D0068D118E129055
:20039B00000AC004C003C0021207C2A882A983D002D003D004D007EA28F8EC39F9E824D06A
:2003BB00FDE934FFFEC007C006C005C003120214AC82D003D005D006D007ECB5031B9027D5
:2003DB0010E4F5F0C007C006C005C003120402D003D005D006D00780CC0FBF050050030233
:2003FB0003048D828E8322AC82AD83AEF0FF780079007A007B00C3E89CE99DEA9EEB9F5089
:20041B000F08B8000909B900050ABA00E90B80E62220C7FDD2C530C3FDC2C5C2C322858242
:20043B00C210C30280FB228582C2D2C410C30280FB2230C3FD85C282C2C32230C3FDAFC2DB
:20045B00C2C3D2C410C30280FB8F8222AF82C2AFC00712042CD00774FE5FF5821204398545
:20047B002C821204397F00AD307E001DBDFF011E8F037C00C3EB9DEC64808EF063F0809583
:20049B00F0501FEF252DFCE4352EFDAE2F8C828D838EF0120EF9F582C007120439D0070F5C
:2004BB0080C5AE307F001EBEFF011FEE252DFEEF352EFFAD2F8E828F838DF0120EF9F582EA
:2004DB00120442D2AF22AF82C2AFC00712042CD00774FE5FF582C0071204398531821204D8
:2004FB004212042CD00774014FF5821204397F00AD357E001DBDFF011E8F037C00C3EB9DCC
:20051B00EC64808EF063F08095F0502ED2C2EF2532FCE43533FDAE34C007C006C005C00485
:20053B0012044DAB82D004D005D006D0078C828D838EF0EB1207A70F80B6C2C2AE357F0048
:20055B001EBEFF011FEE2532FEEF3533FFAD34C007C006C005120456AC82D005D006D0079D
:20057B008E828F838DF0EC1207A7D2AF22752223752300752310752400752D22752E007503
:20059B002F40752C2075300175823012046722752204752D22752E00752F40752C23753055
:2005BB000175823A12046775226B752300752400752D22752E00752F40752C207530017517
:2005DB00823A120467221201127582201201251206B41206B81206BC1206CB12012FE54275
:2005FB006065854082120788858253858354C053C0547442C0E0740FC0E07480C0E012082F
:20061B00FEE58124FBF581120732858243858344754550754600752D45752E00752F40753D
:20063B002C00753001854082120467754200C043C0447461C0E0740FC0E07480C0E0120805
:20065B00FEE58124FBF581E5526090854B82120788858253858354C053C054747BC0E0748C
:20067B000FC0E07480C0E01208FEE58124FBF58112075C85824E85834FC04EC04F749BC0FC
:20069B00E0740FC0E07480C0E01208FEE58124FBF5817552000205F62243A5082275E12720
:2006BB002275D98175D84043E608D2AF75DDC222D2C675CF9322C0E0C007C006C005C00472
:2006DB00C0D075D000AC3EAD3FE4FEFF74FFC39CFC74FF9DFDE49EFEE49FFF8CE98DF9C2D9
:2006FB00DF05410550E4B55002055174FC25415006754201754100C3E5509402E551940032
:20071B004008755201E4F550F551D0D0D004D005D006D007D0E032753245753300753440EA
:20073B007531067535028540821204E1AF457E00E5474EF543E5484FF54485438285448399
:20075B002275324C753300753440753104753502854B821204E1AF4C7E00AC4D7D00EC4E10
:20077B00F54EED4FF54F854E82854F832275324C7533007534407531007535011204E1857C
:0C079B004C537554008553828554832212
:200F19000A54797065206469676974733B20656E6420772F23002020202020256325632518
:200F390063256325630025630072616E676572207265766973696F6E206E756D62657220C6
:200F59006973202575200A00337264206563686F20696E20696E6368206973202575200D54
:200F79000A00636F6D70617373207265766973696F6E206E756D626572206973202575204A
:200F99000A0074686520696E7465726D6564696174652073746570206973202575200D0A09
:010FB9000037
:06008000E478FFF6D8FD54
:20005E007900E94400601B7A00900FC5785175AF00E493F2A308B8000205AFD9F4DAF27506
:02007E00AFFFD2
:1B07A70020F71130F6138883A88220F509F6A8837583002280FEF280F5F02251
:1D07C200E5828511F0A4C582C0F08512F0A4D0F025F0C5838511F0A42583F58322DE
:2007DF00C00F85810FC082058105810581E50F24FBF8A90F0909E6F70809E6F70809E6F7B4
:2007FF00A80F080886820886830886F0120EF9FAA3120EF9FBA3120EF9FF74012AFCE43B3D
:20081F00FD8F06A80F080886820886830886F0EC1207A7A3ED1207A7A3EE1207A78A828BE5
:20083F00838FF0A80F08E61207A7850F81D00F2285820C85830D85F00E75610C7562007543
:20085F006340850864850965850A66850B679007DF1209D5AE82AF83AB0CAC0DAD0E8B8206
:20087F008C838DF0E41207A78E828F8322C00F85810FE50F24F8FF8F67E50F24FBFF8F61FA
:20089F00756200756340E50F24F8F886640886650886669007DF1209D5AE82AF83E50F2491
:1B08BF00FBF886030886040886058B828C838DF0E41207A78E828F83D00F221D
:200086007800E84400600A790175AF00E4F309D8FC7850E84400600C7901900001E4F0A318
:0400A600D8FCD9FAAF
:2008DA00C00F85810F120125D00F2285826485836585F066E4F561F562F5638510679008B1
:2008FA00DA0209D5C00F85810FE50F24FBFF8F67E4F561F562F563E50F24FBF886640886CC
:0D091A00650886669008DA1209D5D00F2214
:20092700AF82C057C058C0591209348007C055C0568F8222158115811581055FE4B55F02E3
:20094700056022AF8274302FFF24C6500A74072FFF3000034307208F82020927E582FFC40F
:20096700540FF582C00712094AD007740F5FF58202094A858211855A12855B13855C14856F
:200987005D15AA5E751620EA2AFAE515235401FF8A064EFAE5122512F512E51333F513E587
:2009A7001433F514E51533F515C3EA95114008EAC39511FA431201E51614FF8F1670C885FB
:2009C700125A85135B85145C85155D8A5E22858255858356856157856258856359E4F55F0C
:2009E700F560AD64AE65AF668D828E838FF0120EF9FC74012DF564E43EF5658F66ECFF70E7
:200A070003020EDABF25028003020ED2C201C202C203C204C205C206C207C2087568007511
:200A27006900756AFFAA64AB65AE668A828B838EF0120EF9FFA3AA82AB838A648B658E66B7
:200A4700BF25078F821209278098BF3000402DEF24C6402874FFB56A12E56975F00AA42F68
:200A6700FC24D0F56970C4D20280C0E56A75F00AA4FC8F05ED2C24D0F56A80AFBF2E0A74E1
:200A8700FFB56AA7756A0080A2BF6100400CEF248540075307DFD2008002C200BF2002808E
:200AA7006DBF2B028063BF2D028059BF42028063BF43028068BF4403020C78BF4603020CB8
:200AC7008EBF4803020A32BF4903020C78BF4A03020A32BF4C028040BF4F03020C7FBF50E4
:200AE70003020C0DBF5302805ABF5403020A32BF5503020C84BF5803020C89BF5A03020A0D
:200B070032020C92D201020A32D203020A32D204020A32D206020A32D207020A3230060A57
:200B2700E56714F9896787078011E56724FEFE8E678E018705098706198D078F8212092734
:200B4700020C9BE56724FDFE8E678E01870409870509870619198C5A8D5B8E5C8C828D8338
:200B67008EF0120EE1AD82AE8374FFB56A028D6A200126C3ED95695020E569C39DF569AEE5
:200B8700698E041EEC6010758220C006C005120927D005D00680EA8E69AE6A855A82855B90
:200BA70083855CF0120EF9FCFF602F8E041EC374808CF063F08095F050208F82C006C005F0
:200BC700120927D005D006AA5AAB5BAC5C0ABA00010B8A5A8B5B8C5C80C1200103020C9B7F
:200BE700C3ED95694003020C9BE569C39DF569AE698E041EEC7003020C99758220C006128C
:200C07000927D00680EBE56724FDFC8C678C01870209870309870419198A5A8B5B8C5CAC33
:200C27005CBC800040047F438014BC600040047F50800BBC400040047F4980027F588F824F
:200C4700C00712092775823A120927758230120927758278120927D007BF4902800BBF507C
:200C6700028006855B82120963855A821209638023D20575680A801C756808801775680AC6
:200C87008012756810800DD20880098F8212092780028E6930085CE56724FCFE8E678E0190
:200CA70087020987030987040987061919198A5A8B5B8C5C8E5D755ABA755B0F755C8085C1
:200CC7005A6C855B6D855C6E7401256CFAE4356DFCAE6E8A5A8C5B8E5C856C82856D8385EB
:200CE7006EF0120EF9FEFF70030209E98F8212092780CCE56870030209E9756B1C30062D60
:200D0700E56714F9896787048C027B007C007E008A5A8B5B8C5C8E5D200566AA5A7B007CD2
:200D2700007E008A5A8B5B8C5C8E5D8054300721E56724FCFE8E678E0187020987030987CB
:200D4700040987061919198A5A8B5B8C5C8E5D8030E56724FEFE8E678E0187040987061930
:200D6700EE3395E0FBFA8C5A8E5B8B5C8A5D200510AA5AAB5B7C007E008A5A8B5B8C5C8ECB
:200D87005D300522E55D30E71BC3E4955AFAE4955BFBE4955CFCE4955DFE8A5A8B5B8C5C6E
:200DA7008E5D8002C205D209A96B7E00755E00856882C006C00112097AD001D00620090B52
:200DC700E55EC4FCE7FB4CF7198002A75E0EB209E55A455B455C455D70D2896B8E05E56942
:200DE7007003756901200224200121ED04FEAC69C3EE9C5015758220C006C005C0041209DB
:200E070027D004D005D0061C80E68C6930050E75822DC005120927D00515698023ED6020DD
:200E270030030E75822BC005120927D0051569800F30040C758220C005120927D0051569AE
:200E4700200126AE698E041EC3ED9C502F3002067B307C0080047B207C008B82C006C00520
:200E6700120927D005D00680DCC3ED95695008E569C39DF569800775690080028E69A96B1E
:200E87008D068E051EED6026B20920090A09E7C4540FFD8D5E80078705740F5DF55E855E7E
:200EA70082C006C00112094AD001D00680D42001030209E9AE698E051EED70030209E97519
:1A0EC7008220C006120927D00680EB8F821209270209E9855F8285608322EF
:0B0FBA003C4E4F20464C4F41543E007F
:180EE100AA82AB83120EF96003A380F8C3E5829AF582E5839BF5832230
:0D00510075816E120F15E582600302004EEE
:1C0EF90020F71430F6148883A88220F507E6A88375830022E280F7E49322E02208
:040F150075820022BF
:00000001FF
