:040000000200513277
:01000B0032C2
:0100130032BA
:01001B0032B2
:0100230032AA
:01002B0032A2
:01003300329A
:01003B003292
:01004300328A
:03004B0002066644
:2000AA0075363475370775380475396F753A00753B48753C00753D70753EE0753F00754759
:0B00CA00C0E4F54CF54DF54E02004E71
:03004E000205DBCD
:2000D50075B1677E007F01EE24FFFCEF34FFFD8C068D07EC4D70F0E5B130E7FB75B288221C
:2000F500759850758920758DDCD28E438E10438780D29943A4012275FFDE75FFAD1200D538
:200115001200F543E10443E34022AF8210990280FB8F992210980280FBAF998F82C007121B
:20013500011FD0078F82222098057582FF800BC29885998212011F85998222C00F85810F70
:20015500E50F24FBF886820886830886F0121113E5828583F045F070028062E50F24FBFFB8
:200175008F0BE50F24FBF8860808860908860A90000175F0001209A890000175F000121136
:2001950013AE827F00C3EF9E501FEF2401F582E43400F583E0FDBD0A0DEF2401F582E4345A
:2001B50000F583740DF00F80DC752D01752E00752F00752C008E307582C6120461D00F2258
:2001D50075270074C0252740177532277533007534407531007535017582C61204DB80E3D6
:2001F50075280C752D28752E00752F40752C007530017582C61204612275322A7533007565
:2002150034407531017535027582C61204DB74FFB52A05758200805F7F008F068EF005F0A0
:200235007C017D008006EC2CFCED33FDD5F0F7AA2A7B00EA5204EB5205EC4D600774312FF7
:20025500F58280330E8E07BE080040D0E52B30E0057582398021E52B30E10575822A801712
:20027500E52B30E205758230800DE52B30E30575822380037582FF22AF82E4FDFEEF701D25
:20029500C006C005749DC0E07412C0E07480C0E0120150158115811581D005D006C006C0FD
:2002B500057408C0E0E4C0E07408C0E0E4C0E07408C0E0E4C0E07408C0E0E4C0E07408C068
:2002D500E0E4C0E074B3C0E07412C0E07480C0E0120150E58124F3F58190A12075F007E42D
:2002F5001203FCD005D0067F00C007C006C00512020EAC82D005D006D0078C03BCFF0280BE
:2003150003BB2A17902710E4F5F0C007C006C0051203FCD005D006D00780CEBB232AC00638
:20033500C00512020EAC82D005D006BC2313902710E4F5F0C006C0051203FCD005D006809F
:20035500DD8D828E830203FB8B027C00C007C006C005C004C003C002C002C00474C3C0E08A
:200375007412C0E07480C0E0120150E58124FBF581D002D003D004D005D0068D118E12905E
:20039500000AC004C003C00212091BA882A983D002D003D004D007EA28F8EC39F9E824D015
:2003B500FDE934FFFEC007C006C005C00312020EAC82D003D005D006D007ECB5031B9027E1
:2003D50010E4F5F0C007C006C005C0031203FCD003D005D006D00780CC0FBF050050030240
:2003F50002FE8D828E8322AC82AD83AEF0FF780079007A007B00C3E89CE99DEA9EEB9F5096
:200415000F08B8000909B900050ABA00E90B80E62220C7FDD2C530C3FDC2C5C2C322858248
:20043500C210C30280FB228582C2D2C410C30280FB2230C3FD85C282C2C32230C3FDAFC2E1
:20045500C2C3D2C410C30280FB8F8222AF82C2AFC007120426D00774FE5FF5821204338557
:200475002C821204337F00AD307E001DBDFF011E8F037C00C3EB9DEC64808EF063F080958F
:20049500F0501FEF252DFCE4352EFDAE2F8C828D838EF01211EEF582C007120433D0070F70
:2004B50080C5AE307F001EBEFF011FEE252DFEEF352EFFAD2F8E828F838DF01211EEF582F8
:2004D50012043CD2AF22AF82C2AFC007120426D00774FE5FF582C0071204338531821204F0
:2004F5003C120426D00774014FF5821204337F00AD357E001DBDFF011E8F037C00C3EB9DE4
:20051500EC64808EF063F08095F0502ED2C2EF2532FCE43533FDAE34C007C006C005C0048B
:20053500120447AB82D004D005D006D0078C828D838EF0EB1209000F80B6C2C2AE357F00F9
:200555001EBEFF011FEE2532FEEF3533FFAD34C007C006C005120450AC82D005D006D007A9
:200575008E828F838DF0EC120900D2AF22752223752300752310752400752D22752E0075AE
:200595002F40752C2075300175823012046122752204752D22752E00752F40752C23753061
:2005B5000175823A12046175226B752300752400752D22752E00752F40752C207530017523
:2005D500823A1204612212010C75822012011F12064312064D12065112066020B5FDE540B1
:2005F50060F91206B4858241858342754350754400752D43752E00752F40752C00753001BB
:20061500853E82120461754000C041C04274C6C0E07412C0E07480C0E0120B16E58124FB05
:20063500F58185418285428312071B80AE2243A50853A7DF43B0202275E1272275D9817538
:20065500D84043E608D2AF75DDC222D2C675CF9322C0E0C007C006C005C004C0D075D00069
:20067500AC3CAD3DE4FEFF74FFC39CFC74FF9DFDE49EFEE49FFF8CE98DF9C2DF053F054CA4
:20069500E4B54C02054D74F8253F5006754001753F00D0D0D004D005D006D007D0E032752F
:2006B5003243753300753440753101753501853E821204DB85438285448322753248753348
:2006D500007534407531047535028547821204DBAF487E00AC497D00EC4EF54AED4FF54BAB
:2006F500854A82854B83227532487533007534407531007535011204DB85484F75500085F7
:200715004F8285508322AE82AF83C3EE9428EF9400500985363A85373B0207CAC374D79E63
:20073500E49F500985383A85393B0207CA8E828F83120A8CAC82AD83AEF0FFE4C0E0C0E01C
:20075500742FC0E07443C0E08C828D838EF0EF12112BAC82AD83AEF0FFE58124FCF581C05A
:2007750004C005C006C00790A00075F0CF74461207FCAC82AD83AEF0FFE58124FCF581E400
:20079500C0E07430C0E07484C0E07445C0E08C828D838EF0EF1207F1AC82AD83AEF0FFE5FA
:2007B5008124FCF5818C828D838EF0EF120A9885823A85833BC03AC03B74CCC0E07412C02F
:1C07D500E07480C0E0120B16E58124FBF58174FFC3953AF5ED74FF953BF5FD2228
:20129D000A54797065206469676974733B20656E6420772F23002020202020256325632591
:1812BD006325632563002563002575200D0A000D50573A2025750A009B
:0B07F100A8811818C6B2E7C6020A3340
:2007FC0012089FBC0003020AC4EF60FA30D502B2D1E583B4FF03020ADAE582B4FF03020A95
:20081C00DA258340072482400B020AC42483145003020ADAF582EA8DF0A4A8F0EA8EF0A418
:20083C0028F8E435F0F9EB8DF0A428E935F0F9E433CA8FF0A429F9EA35F0FAEBF88EF0A40B
:20085C0029F9EA35F0FAE433FBEC8DF0A429F9EA35F0FAE43BFBE88FF0A42AFAEB35F0FBB3
:20087C00E433CCFD8EF0A42AFAEB35F0FBE43CFCED8FF0A42BFBEC35F0FC20E7031208CDDB
:03089C00020AA3AA
:20089F00AA82AB83A2F73392D1F5826002D2F7ACF0E58124F9F8E6FD08E6FE0886F008E6BC
:0E08BF00A2F73392D5F5836002D2F7AFF02294
:06008000E478FFF6D8FD54
:2008CD007804EC7011E58224F8500AF582E4C9CACBFCD8EF22EC7820058220E713D582012A
:1308ED0022C3E933F9EA33FAEB33FBEC33FCD8EA15822238
:20005E007900E94400601B7A009012E0785175AF00E493F2A308B8000205AFD9F4DAF275E8
:02007E00AFFFD2
:1B09000020F71130F6138883A88220F509F6A8837583002280FEF280F5F022F6
:1D091B00E5828511F0A4C582C0F08512F0A4D0F025F0C5838511F0A42583F5832283
:20093800C00F85810FC082058105810581E50F24FBF8A90F0909E6F70809E6F70809E6F759
:20095800A80F080886820886830886F01211EEFAA31211EEFBA31211EEFF74012AFCE43BFA
:20097800FD8F06A80F080886820886830886F0EC120900A3ED120900A3EE1209008A828B7A
:20099800838FF0A80F08E6120900850F81D00F2285820C85830D85F00E755D0C755E007596
:2009B8005F40850860850961850A62850B63900938120BEDAE82AF83AB0CAC0DAD0E8B824B
:2009D8008C838DF0E41209008E828F8322C00F85810FE50F24F8FF8F63E50F24FBFF8F5D4D
:2009F800755E00755F40E50F24F8F88660088661088662900938120BEDAE82AF83E50F24D6
:1B0A1800FBF886030886040886058B828C838DF0E41209008E828F83D00F2267
:200A330012089F7900E583B58202800D50031210F9E583C3958212121DE5D0C465D020E1A3
:200A530017EA2DFAEB3EFBEC3FFC5009740112121DEC4480FC020AA3C3EA9DFAEB9EFBECF2
:190A73009FFC500FC3E499F9E49AFAE49BFBE49CFCB2D11208CD020AA3B0
:200086007800E84400600A790175AF00E4F309D8FC7850E84400600C7901900001E4F0A318
:0400A600D8FCD9FAAF
:0C0A8C00E4AC83AB82FAF9748E02121302
:0B0A98007F8E121266F58385F082222B
:200AA300B98003EA13B34010EA2401FAE43BFBE43CFC50047C800582BC000EBB000BBA0097
:200AC30008E4F5F0F583F58222A2D1E582138CF092F78B838A8222E4F583F58275F080F457
:0F0AE300A2D11322E4F583F58275F0C0747F224F
:200AF200C00F85810F12011FD00F2285826085836185F062E4F55DF55EF55F851063900AB7
:200B1200F2020BEDC00F85810FE50F24FBFF8F63E4F55DF55EF55FE50F24FBF88660088693
:0D0B320061088662900AF2120BEDD00F22CE
:200B3F00AF82C053C054C055120B4C8007C051C0528F8222158115811581055BE4B55B02CB
:200B5F00055C22AF8274302FFF24C6500A74072FFF3000034307208F82020B3FE582FFC4DF
:200B7F00540FF582C007120B62D007740F5FF582020B62858211855612855713855814852D
:200B9F005915AA5A751620EA2AFAE515235401FF8A064EFAE5122512F512E51333F513E575
:200BBF001433F514E51533F515C3EA95114008EAC39511FA431201E51614FF8F1670C885E1
:200BDF0012568513578514588515598A5A22858251858352855D53855E54855F55E4F55B2A
:200BFF00F55CAD60AE61AF628D828E838FF01211EEFC74012DF560E43EF5618F62ECFF70F1
:200C1F00030210F2BF250280030210EAC201C202C203C204C205C206C207C20875640075C7
:200C3F0065007566FFAA60AB61AE628A828B838EF01211EEFFA3AA82AB838A608B618E62C5
:200C5F00BF25078F82120B3F8098BF3000402DEF24C6402874FFB56612E56575F00AA42F3C
:200C7F00FC24D0F56570C4D20280C0E56675F00AA4FC8F05ED2C24D0F56680AFBF2E0A74D3
:200C9F00FFB566A775660080A2BF6100400CEF248540075307DFD2008002C200BF2002807C
:200CBF006DBF2B028063BF2D028059BF42028063BF43028068BF4403020E90BF4603020E82
:200CDF00A6BF4803020C4ABF4903020E90BF4A03020C4ABF4C028040BF4F03020E97BF504A
:200CFF0003020E25BF5302805ABF5403020C4ABF5503020E9CBF5803020EA1BF5A03020C89
:200D1F004A020EAAD201020C4AD203020C4AD204020C4AD206020C4AD207020C4A30060A89
:200D3F00E56314F9896387078011E56324FEFE8E638E018705098706198D078F82120B3F10
:200D5F00020EB3E56324FDFE8E638E01870409870509870619198C568D578E588C828D8318
:200D7F008EF0121113AD82AE8374FFB566028D66200126C3ED95655020E565C39DF565AEAA
:200D9F00658E041EEC6010758220C006C005120B3FD005D00680EA8E65AE66855682855770
:200DBF00838558F01211EEFCFF602F8E041EC374808CF063F08095F050208F82C006C005E2
:200DDF00120B3FD005D006AA56AB57AC580ABA00010B8A568B578C5880C1200103020EB349
:200DFF00C3ED95654003020EB3E565C39DF565AE658E041EEC7003020EB1758220C006124E
:200E1F000B3FD00680EBE56324FDFC8C638C01870209870309870419198A568B578C58AC13
:200E3F0058BC800040047F438014BC600040047F50800BBC400040047F4980027F588F8239
:200E5F00C007120B3F75823A120B3F758230120B3F758278120B3FD007BF4902800BBF50FA
:200E7F00028006855782120B7B855682120B7B8023D20575640A801C756408801775640A8C
:200E9F008012756410800DD20880098F82120B3F80028E6530085CE56324FCFE8E638E016C
:200EBF0087020987030987040987061919198A568B578C588E597556D575571275588085A5
:200EDF00566885576985586A74012568FAE43569FCAE6A8A568C578E588568828569838509
:200EFF006AF01211EEFEFF7003020C018F82120B3F80CCE5647003020C0175671C30062D0A
:200F1F00E56314F9896387048C027B007C007E008A568B578C588E59200566AA567B007CD4
:200F3F00007E008A568B578C588E598054300721E56324FCFE8E638E0187020987030987C9
:200F5F00040987061919198A568B578C588E598030E56324FEFE8E638E018704098706192E
:200F7F00EE3395E0FBFA8C568E578B588A59200510AA56AB577C007E008A568B578C588ED5
:200F9F0059300522E55930E71BC3E49556FAE49557FBE49558FCE49559FE8A568B578C5878
:200FBF008E598002C205D209A9677E00755A00856482C006C001120B92D001D00620090B2E
:200FDF00E55AC4FCE7FB4CF7198002A75A0EB209E55645574558455970D289678E05E56548
:200FFF007003756501200224200121ED04FEAC65C3EE9C5015758220C006C005C004120BC7
:20101F003FD004D005D0061C80E68C6530050E75822DC005120B3FD00515658023ED602099
:20103F0030030E75822BC005120B3FD0051565800F30040C758220C005120B3FD005156568
:20105F00200126AE658E041EC3ED9C502F3002067B307C0080047B207C008B82C006C0050A
:20107F00120B3FD005D00680DCC3ED95655008E565C39DF565800775650080028E65A96702
:20109F008D068E051EED6026B20920090A09E7C4540FFD8D5A80078705740F5DF55A855A70
:2010BF0082C006C001120B62D001D00680D4200103020C01AE658E051EED7003020C0175B3
:1A10DF008220C006120B3FD00680EB8F82120B3F020C01855B82855C83228E
:0B12D5003C4E4F20464C4F41543E0061
:1A10F900E582C583F582A2D133A2D592D11392D5ECCFFCEBCEFBEACDFA227F
:18111300AA82AB831211EE6003A380F8C3E5829AF582E5839BF5832203
:20112B0012089F30D502B2D1BF0009BC0003020AE7020ADABC0003020AC4E583B4FF0BE567
:20114B0082B4FF03020AE7020AC4E582B4FF03020ADAC395835007247F400B020AC42480F2
:20116B00145003020ADAF582C3ED9AEE9BEF9C40111582C3EA33F9EB33FAEC33FBE433FC3C
:20118B008005E4CCCBCAF9C08275F019C3E99DEA9EEB9FEC9400D5F002802D400EE99DF9A5
:2011AB00EA9EFAEB9FFBEC9400FCC3B3E833F8E58233F582E58333F583C3E933F9EA33FA05
:2011CB00EB33FBEC33FC80C4B3E4F938FAE43582FBE43583FCD082500405827C801208CD8C
:0311EB00020ABB3A
:0D00510075816A121260E582600302004EA4
:1C11EE0020F71430F6148883A88220F507E6A88375830022E280F7E49322E02210
:13120A00FCABF0AA83A982749EC2D1F5821208CD020AA330
:20121D006040F82582500274FFF582E824F8501ECCCBCAF9E4CC24F85014CBCAF9E4CB24D9
:20123D00F8500BCAF9E4CA24F8500379002224086010F8C3EC13FCEB13FBEA13FAE913F98C
:03125D00D8F122A3
:041260007582002271
:201264007F9E12128B30D103020AC4C3EF9582500974FFF5F0F583F58222790012121D89FC
:07128400828A838BF0EC224B
:12128B00AA82AB83A2F73392D1F5826002D2F7ACF02268
:00000001FF
