:040000000200513277
:01000B0032C2
:0100130032BA
:01001B0032B2
:0100230032AA
:01002B0032A2
:01003300329A
:01003B003292
:01004300328A
:03004B000206E4C6
:2000AA00E4F538F539F53AF53BF53FF5407541E0F542F5437544C0F549F54A754B84754C2F
:0A00CA0003F552F553F55402004E01
:03004E000205DACE
:2000D40075B1677E007F01EE24FFFCEF34FFFD8C068D07EC4D70F0E5B130E7FB75B288221D
:2000F400759850758920758DDCD28E438E10438780D29943A4012275FFDE75FFAD1200D43A
:200114001200F443E10443E34022AF8210990280FB8F992210980280FBAF998F82C007121D
:20013400011ED0078F82222098057582FF800BC29885998212011E85998222C00F85810F73
:20015400E50F24FBF886820886830886F01219EFE5828583F045F070028062E50F24FBFFD5
:200174008F0BE50F24FBF8860808860908860A90000175F00012127790000175F000121957
:20019400EFAE827F00C3EF9E501FEF2401F582E43400F583E0FDBD0A0DEF2401F582E4347F
:2001B40000F583740DF00F80DC752D01752E00752F00752C008E307582C6120460D00F225A
:2001D40075270074C0252740177532277533007534407531007535017582C61204DA80E3D8
:2001F40075280C752D28752E00752F40752C007530017582C61204602275322A7533007567
:2002140034407531017535027582C61204DA74FFB52A05758200805F7F008F068EF005F0A2
:200234007C017D008006EC2CFCED33FDD5F0F7AA2A7B00EA5204EB5205EC4D600774312FF8
:20025400F58280330E8E07BE080040D0E52B30E0057582398021E52B30E10575822A801713
:20027400E52B30E205758230800DE52B30E30575822380037582FF22AF82E4FDFEEF701D26
:20029400C006C00574B1C0E0741BC0E07480C0E012014F158115811581D005D006C006C0E2
:2002B400057408C0E0E4C0E07408C0E0E4C0E07408C0E0E4C0E07408C0E0E4C0E07408C069
:2002D400E0E4C0E074C7C0E0741BC0E07480C0E012014FE58124F3F58190A12075F007E412
:2002F4001203FBD005D0067F00C007C006C00512020DAC82D005D006D0078C03BCFF0280C1
:2003140003BB2A17902710E4F5F0C007C006C0051203FBD005D006D00780CEBB232AC0063A
:20033400C00512020DAC82D005D006BC2313902710E4F5F0C006C0051203FBD005D00680A2
:20035400DD8D828E830203FA8B027C00C007C006C005C004C003C002C002C00474D7C0E078
:20037400741BC0E07480C0E012014FE58124FBF581D002D003D004D005D0068D118E129057
:20039400000AC004C003C0021211EAA882A983D002D003D004D007EA28F8EC39F9E824D03F
:2003B400FDE934FFFEC007C006C005C00312020DAC82D003D005D006D007ECB5031B9027E3
:2003D40010E4F5F0C007C006C005C0031203FBD003D005D006D00780CC0FBF050050030242
:2003F40002FD8D828E8322AC82AD83AEF0FF780079007A007B00C3E89CE99DEA9EEB9F5098
:200414000F08B8000909B900050ABA00E90B80E62220C7FDD2C530C3FDC2C5C2C322858249
:20043400C210C30280FB228582C2D2C410C30280FB2230C3FD85C282C2C32230C3FDAFC2E2
:20045400C2C3D2C410C30280FB8F8222AF82C2AFC007120425D00774FE5FF582120432855A
:200474002C821204327F00AD307E001DBDFF011E8F037C00C3EB9DEC64808EF063F0809591
:20049400F0501FEF252DFCE4352EFDAE2F8C828D838EF0121ACAF582C007120432D0070F8D
:2004B40080C5AE307F001EBEFF011FEE252DFEEF352EFFAD2F8E828F838DF0121ACAF58214
:2004D40012043BD2AF22AF82C2AFC007120425D00774FE5FF582C0071204328531821204F4
:2004F4003B120425D00774014FF5821204327F00AD357E001DBDFF011E8F037C00C3EB9DE8
:20051400EC64808EF063F08095F0502ED2C2EF2532FCE43533FDAE34C007C006C005C0048C
:20053400120446AB82D004D005D006D0078C828D838EF0EB1211CF0F80B6C2C2AE357F0024
:200554001EBEFF011FEE2532FEEF3533FFAD34C007C006C00512044FAC82D005D006D007AB
:200574008E828F838DF0EC1211CFD2AF22752223752300752310752400752D22752E0075D8
:200594002F40752C2075300175823012046022752204752D22752E00752F40752C23753063
:2005B4000175823A12046075226B752300752400752D22752E00752F40752C207530017525
:2005D400823A1204602212010B75822012011E1206A81206BB1206BF1206D41206DA74DAB7
:2005F400C0E0741BC0E07480C0E01213F2158115811581900051E0F538A3E0F539AC38AD7B
:2006140039E4FEFF74FFC39CFC74FF9DFDE49EE49F8CEA8DFA900057E0F53AA3E0F53BAC7A
:200634003AAD3BE4FEFF74FFC39CFC74FF9DFDE49EFEE49FFF8CEC8DFCC3E5369432E53705
:20065400940040F5C038C0397404C0E0741CC0E07480C0E01213F2E58124FBF581C03AC024
:200674003B7429C0E0741CC0E07480C0E01213F2E58124FBF5811201D4744BC0E0741CC082
:20069400E07480C0E012014F15811581158112073A80FB2243A50C53A77F43B08053BD7F4F
:2006B40043908053A57F2275E1272275D84075D98143E608D2AF75DDC275DCC275DAC22233
:2006D40075CF93D2C62275D10375AA8043AB0122C0E0C0D00536E4B53602053730DF3F05B1
:2006F4004205490552E4B55202055375E9FF75F96FC2DF74FC2542500675430175420074CE
:20071400FE25495006754A01754900C3E5529414E55394004008755401E4F552F55353D867
:2007340040D0D0D0E03230B70302086F758207120FEB85824F120FFD858250858351C05042
:20075400C0517466C0E0741CC0E07480C0E01213F2E58124FBF5811209AAE5436063120F53
:2007740093AE828E3C753D51752D3D752E00752F40752C00753001854182120460754300B2
:20079400AE3C7F00C006C0077496C0E0741CC0E07480C0E01213F2E58124FBF581E53C248A
:2007B400AF4002C29430B719900057E0F53AA3E0F53B900051E0F538A3E0F539D294020826
:2007D4006FE54A6048E53C24AF5042D294120FBF858247858348C047C04874A8C0E0741CFA
:2007F400C0E07480C0E01213F2E58124FBF581754A0030B718900051E0F538A3E0F53990B2
:200814000057E0F53AA3E0F53BD294804EE554700302073A1201D4C03FC040C047C048741F
:20083400BDC0E0741CC0E07480C0E012014FE58124F9F581C038C039C03FC040C047C04829
:2008540074D8C0E0741CC0E07480C0E01213F2E58124F7F58175540002073A758207120F9B
:20087400EB85824F120FFD858250858351C050C0517466C0E0741CC0E07480C0E01213F2DF
:20089400E58124FBF581E543604F30B74C120F93AE828E3C753D51752D3D752E00752F4028
:2008B400752C00753001854182120460754300AE3C7F00C006C0077496C0E0741CC0E07423
:2008D40080C0E01213F2E58124FBF581E53C24AF4020C294120AA6801920B716900051E01F
:2008F400F538A3E0F539900057E0F53AA3E0F53BD294E53C24AF5033E54A602F30B72CD2DD
:2009140094120FBF858247858348C047C04874A8C0E0741CC0E07480C0E01213F2E5812481
:20093400FBF581754A00120CFD801920B716900051E0F538A3E0F539900057E0F53AA3E0BA
:20095400F53BD294E55460441201D4C03FC040C047C04874BDC0E0741CC0E07480C0E01274
:20097400014FE58124F9F581C038C039C03FC040C047C04874D8C0E0741CC0E07480C0E06B
:200994001213F2E58124F7F581755400120C6D30B70302086F22120128AF82BF77287432EC
:2009B400253AF53AE4353BF53B90005BE0FDA3E0FEC3ED953AEE953B503690005BE0F53A0B
:2009D400A3E0F53B802ABF7327E53A24CEF53AE53B34FFF53B900059E0FDA3E0FEC3E53A61
:2009F4009DE53B9E500A900059E0F53AA3E0F53BBF642874142538F538E43539F539900016
:200A140055E0FDA3E0FEC3ED9538EE95395036900055E0F538A3E0F539802ABF6127E5389F
:200A340024ECF538E53934FFF539900053E0FEA3E0FFC3E5389EE5399F500A900053E0F556
:200A540038A3E0F539C03AC03B74E3C0E0741CC0E07480C0E01213F2E58124FBF58174FF64
:200A7400C3953AF5EC74FF953BF5FCC038C03974F1C0E0741CC0E07480C0E01213F2E58184
:200A940024FBF58174FFC39538F5EA74FF9539F5FA2274F6253C400D900053E0F538A3E0EE
:200AB400F539020C35E53C24AF500D900055E0F538A3E0F539020C3574D3253C5003020B72
:200AD40065AE3C7F00742DC39EF582E49FF58312135BAC82AD83AEF0FFC004C005C006C036
:200AF40007908F5C75F09474411210CBAC82AD83AEF0FFE58124FCF581900051E0FAA3E090
:200B1400FB8A828B83C007C006C005C004121368A882A983AAF0FBD004D005D006D007C008
:200B340004C005C006C007888289838AF0EB1210C0AC82AD83AEF0FFE58124FCF5818C82E9
:200B54008D838EF0EF121374858238858339020C35E53C24D24003020BFDAE3C7F00EE24C9
:200B7400D3F582EF34FFF58312135BAC82AD83AEF0FFC004C005C006C007908F5C75F09478
:200B940074411210CBAC82AD83AEF0FFE58124FCF581900051E0FAA3E0FB8A828B83C0078E
:200BB400C006C005C004121368A882A983AAF0FBD004D005D006D007C000C001C002C003FE
:200BD4008C828D838EF0EF121302AC82AD83AEF0FFE58124FCF5818C828D838EF0EF1213A8
:200BF400748582388583398038900055E0FEA3E0FFC3EE9538EF9539500C900055E0F53867
:200C1400A3E0F539801B900053E0FEA3E0FFC3E5389EE5399F500A900053E0F538A3E0F534
:200C340039900051E0FEA3E0FFE538C39EFEE5399FFFC006C0077401C0E0741DC0E0748027
:200C5400C0E01213F2E58124FBF58174FFC39538F5EA74FF9539F5FA2212013BAF82BF2B31
:200C7400287419253AF53AE4353BF53B90005BE0FDA3E0FEC3ED953AEE953B504590005B93
:200C9400E0F53AA3E0F53B8039BF2D29E53A24E7F53AE53B34FFF53B900059E0FDA3E0FE8D
:200CB400C3E53A9DE53B9E5019900059E0F53AA3E0F53B800DBF6E0A900057E0F53AA3E092
:200CD400F53BC03AC03B74E3C0E0741CC0E07480C0E01213F2E58124FBF58174FFC3953A09
:200CF400F5EC74FF953BF5FC22E54BC39547F54DE54C9548F54EC3E54D9408E54E6480940B
:200D140087400FE54D24F0F54DE54E34F1F54E020DABC374F8954D7478854EF063F08095E4
:200D3400F0400E7410254DF54D740E354EF54E8066C3743A954D7487854EF063F08095F092
:200D54004023E54D9408E54E648094874017741BC0E0741DC0E07480C0E01213F21581150F
:200D74008115818032C374F8954D7478854EF063F08095F04021E54D94C6E54E648094786E
:200D94004015741BC0E0741DC0E07480C0E01213F2158115811581C37432954D7480854E0B
:200DB400F063F08095F04003020E5C854D82854E8312135BAC82AD83AEF0FFC004C005C0BA
:200DD40006C00790556175F0D5743E1210CBAC82AD83AEF0FFE58124FCF581900051E0FA61
:200DF400A3E0FB8A828B83C007C006C005C004121368A882A983AAF0FBD004D005D006D06A
:200E140007C000C001C002C0038C828D838EF0EF121302AC82AD83AEF0FFE58124FCF58108
:200E34008C828D838EF0EF121374858238858339742AC0E0741DC0E07480C0E01213F215CB
:200E54008115811581020F1DC3E54D94CEE54E6480947F4003020F08854D82854E831213F7
:200E74005BAC82AD83AEF0FFC004C005C006C00790556175F0D5743E1210CBAC82AD83AEC7
:200E9400F0FFE58124FCF581900051E0FAA3E0FB8A828B83C007C006C005C004121368A8B5
:200EB40082A983AAF0FBD004D005D006D007C004C005C006C007888289838AF0EB121302CD
:200ED400AC82AD83AEF0FFE58124FCF5818C828D838EF0EF1213748582388583397437C0F8
:200EF400E0741DC0E07480C0E01213F215811581158180157444C0E0741DC0E07480C0E0AE
:200F14001213F2158115811581900055E0FEA3E0FFC3EE9538EF9539500A900055E0F53818
:200F3400A3E0F539900053E0FEA3E0FFC3E5389EE5399F500A900053E0F538A3E0F539C0B3
:200F54004DC04E744DC0E0741DC0E07480C0E01213F2E58124FBF581C038C0397463C0E082
:200F7400741DC0E07480C0E01213F2E58124FBF58174FFC39538F5EA74FF9539F5FA2275DD
:200F9400323D7533007534407531027535028541821204DAAF3D7E00AC3E7D00EC4EF53F72
:200FB400ED4FF540853F82854083227532457533007534407531027535028544821204DAF0
:200FD400AF457E00AC467D00EC4EF547ED4FF548854782854883228582AC53AADF43AA10E1
:200FF400E5AA30E5FB859C8222121AE6AC82AD83AEF0FFC004C005C006C00790999A75F02E
:201014001974401210CBAC82AD83AEF0FFE58124FCF581E4C0E0C0E07480C0E07443C0E0FC
:201034008C828D838EF0EF121A07AC82AD83AEF0FFE58124FCF581C004C005C006C0079041
:20105400000075F0EC74421210CBAC82AD83AEF0FFE58124FCF581E4C0E0C0E07490C0E0C9
:201074007441C0E08C828D838EF0EF121A07AC82AD83AEF0FFE58124FCF581C004C005C009
:2010940006C00790000075F07A74441210CBAC82AD83AEF0FFE58124FCF5818C828D838EB8
:0C10B400F0EF12137485825085835122E6
:201BB1000A54797065206469676974733B20656E6420772F23002020202020256325632574
:201BD100632563256300256300456D62656464656420436F6E74726F6C2050756C7365774E
:201BF100696474682043616C6962726174696F6E0D0A005374656572696E672043616C69B2
:201C110062726174696F6E2066696E69736865642E202575200D0A004D6F746F7220436166
:201C31006C6962726174696F6E2066696E69736865642E202575200D0A0043616C696272F9
:201C51006174696F6E3A0A48656C6C6F20776F726C64210A00242424242424242424244203
:201C710061747465727920766F6C746167653A2025752024242424242424242424242424C0
:201C910024240D0A0064697374616E6365206973202575200D0A0068656164696E67207438
:201CB1006F7761726473202575200A000A0D48656164696E672025752C0A0D20526561643F
:201CD100696E67202575000D25750925750925750A006D6F746F722050573A2025750A000E
:201CF10073746572696E672050573A2025750A004F76657269646520697320736574746503
:201D11006420746F202564200A004A757374206261636B207570200A002D2D2D2D2D2D2DB7
:201D31002D3E200D0A003C2D2D2D2D2D2D2D2D200D0A0020202D2D20200D0A005374657286
:201D5100696E67206572726F72206973202564200A0053746572696E6720697320736574D7
:091D710020746F202575200A0082
:0C1D85005F0AD507E90CCD0AEB07AE0D94
:0B10C000A8811818C6B2E7C602130290
:2010CB0012116EBC00030213A0EF60FA30D502B2D1E583B4FF030213B6E582B4FF03021312
:2010EB00B6258340072482400B0213A024831450030213B6F582EA8DF0A4A8F0EA8EF0A49B
:20110B0028F8E435F0F9EB8DF0A428E935F0F9E433CA8FF0A429F9EA35F0FAEBF88EF0A433
:20112B0029F9EA35F0FAE433FBEC8DF0A429F9EA35F0FAE43BFBE88FF0A42AFAEB35F0FBDB
:20114B00E433CCFD8EF0A42AFAEB35F0FBE43CFCED8FF0A42BFBEC35F0FC20E70312119C2B
:03116B0002137FED
:20116E00AA82AB83A2F73392D1F5826002D2F7ACF0E58124F9F8E6FD08E6FE0886F008E6E4
:0E118E00A2F73392D5F5836002D2F7AFF022BC
:06008000E478FFF6D8FD54
:20119C007804EC7011E58224F8500AF582E4C9CACBFCD8EF22EC7820058220E713D5820152
:1311BC0022C3E933F9EA33FAEB33FBEC33FCD8EA15822260
:20005E00790CE94400601B7A01901D85785175AF00E493F2A308B8000205AFD9F4DAF2752B
:02007E00AFFFD2
:1B11CF0020F71130F6138883A88220F509F6A8837583002280FEF280F5F0221F
:1D11EA00E5828511F0A4C582C0F08512F0A4D0F025F0C5838511F0A42583F58322AC
:20120700C00F85810FC082058105810581E50F24FBF8A90F0909E6F70809E6F70809E6F781
:20122700A80F080886820886830886F0121ACAFAA3121ACAFBA3121ACAFF74012AFCE43B73
:20124700FD8F06A80F080886820886830886F0EC1211CFA3ED1211CFA3EE1211CF8A828B1D
:20126700838FF0A80F08E61211CF850F81D00F2285820C85830D85F00E75610C75620075DF
:201287006340850864850965850A66850B679012071214C9AE82AF83AB0CAC0DAD0E8B82A2
:2012A7008C838DF0E41211CF8E828F8322C00F85810FE50F24F8FF8F67E50F24FBFF8F6196
:2012C700756200756340E50F24F8F886640886650886669012071214C9AE82AF83E50F242D
:1B12E700FBF886030886040886058B828C838DF0E41211CF8E828F83D00F22B9
:200086007800E84400600A790175AF00E4F309D8FC7850E84400600C7901900001E4F0A318
:0400A600D8FCD9FAAF
:2013020012116E7900E583B58202800D50031219D5E583C39582121B31E5D0C465D020E1F1
:2013220017EA2DFAEB3EFBEC3FFC50097401121B31EC4480FC02137FC3EA9DFAEB9EFBEC18
:191342009FFC500FC3E499F9E49AFAE49BFBE49CFCB2D112119C02137F1B
:0D135B00AC83AB827A007900748E021AFA1E
:0C136800E4AC83AB82FAF9748E021B2700
:0B1374007F8E121B7AF58385F0822229
:20137F00B98003EA13B34010EA2401FAE43BFBE43CFC50047C800582BC000EBB000BBA00B2
:20139F0008E4F5F0F583F58222A2D1E582138CF092F78B838A8222E4F583F58275F080F472
:0F13BF00A2D11322E4F583F58275F0C0747F226A
:2013CE00C00F85810F12011ED00F2285826485836585F066E4F561F562F5638510679013AE
:2013EE00CE0214C9C00F85810FE50F24FBFF8F67E4F561F562F563E50F24FBF886640886DA
:0D140E00650886669013CE1214C9D00F2217
:20141B00AF82C057C058C0591214288007C055C0568F8222158115811581055FE4B55F02E5
:20143B00056022AF8274302FFF24C6500A74072FFF3000034307208F8202141BE582FFC411
:20145B00540FF582C00712143ED007740F5FF58202143E858211855A12855B13855C148572
:20147B005D15AA5E751620EA2AFAE515235401FF8A064EFAE5122512F512E51333F513E588
:20149B001433F514E51533F515C3EA95114008EAC39511FA431201E51614FF8F1670C885FC
:2014BB00125A85135B85145C85155D8A5E22858255858356856157856258856359E4F55F0D
:2014DB00F560AD64AE65AF668D828E838FF0121ACAFC74012DF564E43EF5658F66ECFF700B
:2014FB00030219CEBF250280030219C6C201C202C203C204C205C206C207C2087568007515
:20151B006900756AFFAA64AB65AE668A828B838EF0121ACAFFA3AA82AB838A648B658E66DB
:20153B00BF25078F8212141B8098BF3000402DEF24C6402874FFB56A12E56975F00AA42F6A
:20155B00FC24D0F56970C4D20280C0E56A75F00AA4FC8F05ED2C24D0F56A80AFBF2E0A74E2
:20157B00FFB56AA7756A0080A2BF6100400CEF248540075307DFD2008002C200BF2002808F
:20159B006DBF2B028063BF2D028059BF42028063BF43028068BF440302176CBF46030217AF
:2015BB0082BF4803021526BF490302176CBF4A03021526BF4C028040BF4F03021773BF50F5
:2015DB0003021701BF5302805ABF5403021526BF5503021778BF580302177DBF5A03021507
:2015FB0026021786D201021526D203021526D204021526D206021526D20702152630060A6B
:20161B00E56714F9896787078011E56724FEFE8E678E018705098706198D078F8212141B36
:20163B0002178FE56724FDFE8E678E01870409870509870619198C5A8D5B8E5C8C828D833A
:20165B008EF01219EFAD82AE8374FFB56A028D6A200126C3ED95695020E569C39DF569AECD
:20167B00698E041EEC6010758220C006C00512141BD005D00680EA8E69AE6A855A82855B92
:20169B0083855CF0121ACAFCFF602F8E041EC374808CF063F08095F050208F82C006C00514
:2016BB0012141BD005D006AA5AAB5BAC5C0ABA00010B8A5A8B5B8C5C80C120010302178F82
:2016DB00C3ED9569400302178FE569C39DF569AE698E041EEC700302178D758220C006128F
:2016FB00141BD00680EBE56724FDFC8C678C01870209870309870419198A5A8B5B8C5CAC36
:20171B005CBC800040047F438014BC600040047F50800BBC400040047F4980027F588F8250
:20173B00C00712141B75823A12141B75823012141B75827812141BD007BF4902800BBF5081
:20175B00028006855B82121457855A821214578023D20575680A801C756808801775680AC9
:20177B008012756810800DD20880098F8212141B80028E6930085CE56724FCFE8E678E0192
:20179B0087020987030987040987061919198A5A8B5B8C5C8E5D755A7A755B1D755C8085F4
:2017BB005A6C855B6D855C6E7401256CFAE4356DFCAE6E8A5A8C5B8E5C856C82856D8385EC
:2017DB006EF0121ACAFEFF70030214DD8F8212141B80CCE56870030214DD756B1C30062D87
:2017FB00E56714F9896787048C027B007C007E008A5A8B5B8C5C8E5D200566AA5A7B007CD4
:20181B00007E008A5A8B5B8C5C8E5D8054300721E56724FCFE8E678E0187020987030987CC
:20183B00040987061919198A5A8B5B8C5C8E5D8030E56724FEFE8E678E0187040987061931
:20185B00EE3395E0FBFA8C5A8E5B8B5C8A5D200510AA5AAB5B7C007E008A5A8B5B8C5C8ECC
:20187B005D300522E55D30E71BC3E4955AFAE4955BFBE4955CFCE4955DFE8A5A8B5B8C5C6F
:20189B008E5D8002C205D209A96B7E00755E00856882C006C00112146ED001D00620090B54
:2018BB00E55EC4FCE7FB4CF7198002A75E0EB209E55A455B455C455D70D2896B8E05E56943
:2018DB007003756901200224200121ED04FEAC69C3EE9C5015758220C006C005C0041214D1
:2018FB001BD004D005D0061C80E68C6930050E75822DC00512141BD00515698023ED6020EC
:20191B0030030E75822BC00512141BD0051569800F30040C758220C00512141BD0051569B1
:20193B00200126AE698E041EC3ED9C502F3002067B307C0080047B207C008B82C006C00521
:20195B0012141BD005D00680DCC3ED95695008E569C39DF569800775690080028E69A96B20
:20197B008D068E051EED6026B20920090A09E7C4540FFD8D5E80078705740F5DF55E855E7F
:20199B0082C006C00112143ED001D00680D42001030214DDAE698E051EED70030214DD751D
:1A19BB008220C00612141BD00680EB8F8212141B0214DD855F8285608322F3
:0B1D7A003C4E4F20464C4F41543E00B1
:1A19D500E582C583F582A2D133A2D592D11392D5ECCFFCEBCEFBEACDFA229A
:1819EF00AA82AB83121ACA6003A380F8C3E5829AF582E5839BF583223A
:201A070012116E30D502B2D1BF0009BC00030213C30213B6BC00030213A0E583B4FF0BE5FB
:201A270082B4FF030213C30213A0E582B4FF030213B6C395835007247F400B0213A0248079
:201A47001450030213B6F582C3ED9AEE9BEF9C40111582C3EA33F9EB33FAEC33FBE433FC72
:201A67008005E4CCCBCAF9C08275F019C3E99DEA9EEB9FEC9400D5F002802D400EE99DF9C0
:201A8700EA9EFAEB9FFBEC9400FCC3B3E833F8E58233F582E58333F583C3E933F9EA33FA20
:201AA700EB33FBEC33FC80C4B3E4F938FAE43582FBE43583FCD082500405827C8012119CCF
:031AC70002139770
:0D00510075816E121B74E582600302004E83
:1C1ACA0020F71430F6148883A88220F507E6A88375830022E280F7E49322E0222B
:0B1AE600E4AC82FBFAF97486021B27B7
:201AF100FCABF0AA83A982749EF582C2D1EC30E716D2D1E9F42401F9EAF43400FAEBF434F4
:0D1B110000FBECF43400FC12119C02137F69
:131B1E00FCABF0AA83A982749EC2D1F58212119C02137F56
:201B31006040F82582500274FFF582E824F8501ECCCBCAF9E4CC24F85014CBCAF9E4CB24BC
:201B5100F8500BCAF9E4CA24F8500379002224086010F8C3EC13FCEB13FBEA13FAE913F96F
:031B7100D8F12286
:041B74007582002254
:201B78007F9E121B9F30D1030213A0C3EF9582500974FFF5F0F583F582227900121B3189C0
:071B9800828A838BF0EC222E
:121B9F00AA82AB83A2F73392D1F5826002D2F7ACF0224B
:00000001FF
