:03000000020006F5
:03005F0002000399
:030003000200DD1B
:2000620075B1677E007F01EE24FFFCEF34FFFD8C068D07EC4D70F0E5B130E7FB75B288228F
:20008200759850758920758DDCD28E438E10438780D29943A4012275FFDE75FFAD1200621E
:2000A20012008243E10443E34022AF8210990280FB8F992210980280FBAF998F82C0071202
:2000C20000ACD0078F82222098057582FF800BC2988599821200AC8599822212009975820E
:2000E200201200AC1200EF1200FF80FB2253A7FC43A7D875B00353A6FE43A0012230A01AAA
:20010200C2B674E2C0E07407C0E07480C0E01201C71581158115810201A2D2B674FCC0E0E7
:200122007407C0E07480C0E01201C715811581158120B02020B11D7416C0E07408C0E074DA
:2001420080C0E01201C7158115811581D2B3D2B4C2B7804C20B02030B11D7432C0E07408E1
:20016200C0E07480C0E01201C7158115811581C2B3D2B4D2B7802930B02020B11D744DC011
:20018200E07408C0E07480C0E01201C7158115811581D2B3C2B4D2B78006D2B3D2B4D2B793
:0101A200223A
:2007E2000D20536C69646520737769746368206973206F6E202020200A000D20536C6964EB
:200802006520737769746368206973206F66662020200A000D20426F746820627574746FF6
:200822006E732061726520707573686564200A000D20205042312028477265656E292069AF
:200842007320707573686564200A000D20504232202872656429206973207075736865640E
:03086200200A0069
:06003500E478FFF6D8FD9F
:200013007900E94400601B7A00900870780175AF00E493F2A308B8000205AFD9F4DAF275FD
:02003300AFFF1D
:20003B007800E84400600A790175AF00E4F309D8FC7800E84400600C7900900001E4F0A3B4
:04005B00D8FCD9FAFA
:2001A300C0098581091200ACD0092285823185833285F033E4F52EF52FF5308508349001EF
:2001C300A302029EC009858109E50924FBFF8F34E4F52EF52FF530E50924FBF88631088696
:0D01E300320886339001A312029ED009223B
:2001F000AF82C024C025C0261201FD8007C022C0238F8222158115811581052CE4B52C02C6
:20021000052D22AF8274302FFF24C6500A74072FFF3000034307208F820201F0E582FFC4BF
:20023000540FF582C007120213D007740F5FF58202021385820A85270B85280C85290D85DE
:200250002A0EAA2B750F20EA2AFAE50E235401FF8A064EFAE50B250BF50BE50C33F50CE563
:200270000D33F50DE50E33F50EC3EA950A4008EAC3950AFA430B01E50F14FF8F0F70C88578
:200290000B27850C28850D29850E2A8A2B22858222858323852E24852F25853026E4F52C30
:2002B000F52DAD31AE32AF338D828E838FF01207C2FC74012DF531E43EF5328F33ECFF70C8
:2002D000030207A3BF2502800302079BC201C202C203C204C205C206C207C20875350075FF
:2002F00036007537FFAA31AB32AE338A828B838EF01207C2FFA3AA82AB838A318B328E33CC
:20031000BF25078F821201F08098BF3000402DEF24C6402874FFB53712E53675F00AA42F4B
:20033000FC24D0F53670C4D20280C0E53775F00AA4FC8F05ED2C24D0F53780AFBF2E0A74B8
:20035000FFB537A775370080A2BF6100400CEF248540075307DFD2008002C200BF20028032
:200370006DBF2B028063BF2D028059BF42028063BF43028068BF4403020541BF460302053B
:2003900057BF48030202FBBF4903020541BF4A030202FBBF4C028040BF4F03020548BF5053
:2003B000030204D6BF5302805ABF54030202FBBF550302054DBF5803020552BF5A0302024D
:2003D000FB02055BD2010202FBD2030202FBD2040202FBD2060202FBD2070202FB30060A46
:2003F000E53414F9893487078011E53424FEFE8E348E018705098706198D078F821201F07E
:20041000020564E53424FDFE8E348E01870409870509870619198C278D288E298C828D83B3
:200430008EF01207AAAD82AE8374FFB537028D37200126C3ED95365020E536C39DF536AE60
:20045000368E041EEC6010758220C006C0051201F0D005D00680EA8E36AE3785278285280C
:20047000838529F01207C2FCFF602F8E041EC374808CF063F08095F050208F82C006C0059F
:200490001201F0D005D006AA27AB28AC290ABA00010B8A278B288C2980C12001030205646C
:2004B000C3ED95364003020564E536C39DF536AE368E041EEC7003020562758220C0061212
:2004D00001F0D00680EBE53424FDFC8C348C01870209870309870419198A278B288C29ACB0
:2004F00029BC800040047F438014BC600040047F50800BBC400040047F4980027F588F82C1
:20051000C0071201F075823A1201F07582301201F07582781201F0D007BF4902800BBF50B6
:2005300002800685288212022C85278212022C8023D20575350A801C753508801775350A7F
:200550008012753510800DD20880098F821201F080028E3630085CE53424FCFE8E348E01D9
:2005700087020987030987040987061919198A278B288C298E2A75276575280875298085C0
:20059000273985283A85293B74012539FAE4353AFCAE3B8A278C288E29853982853A8385F3
:2005B0003BF01207C2FEFF70030202B28F821201F080CCE53570030202B275381530062D37
:2005D000E53414F9893487048C027B007C007E008A278B288C298E2A200566AA277B007C76
:2005F000007E008A278B288C298E2A8054300721E53424FCFE8E348E01870209870309873C
:20061000040987061919198A278B288C298E2A8030E53424FEFE8E348E01870409870619A0
:20063000EE3395E0FBFA8C278E288B298A2A200510AA27AB287C007E008A278B288C298ED4
:200650002A300522E52A30E71BC3E49527FAE49528FBE49529FCE4952AFE8A278B288C2977
:200670008E2A8002C205D209A9387E00752B00853582C006C001120243D001D00620090B9A
:20069000E52BC4FCE7FB4CF7198002A72B0EB209E52745284529452A70D289388E05E53618
:2006B0007003753601200224200121ED04FEAC36C3EE9C5015758220C006C005C004120187
:2006D000F0D004D005D0061C80E68C3630050E75822DC0051201F0D00515368023ED6020F8
:2006F00030030E75822BC0051201F0D0051536800F30040C758220C0051201F0D0051536D1
:20071000200126AE368E041EC3ED9C502F3002067B307C0080047B207C008B82C006C00591
:200730001201F0D005D00680DCC3ED95365008E536C39DF536800775360080028E36A938CD
:200750008D068E051EED6026B20920090A09E7C4540FFD8D2B80078705740F5DF52B852B55
:2007700082C006C001120213D001D00680D42001030202B2AE368E051EED70030202B27544
:1A0790008220C0061201F0D00680EB8F821201F00202B2852C82852D83224F
:0B0865003C4E4F20464C4F41543E00DB
:1807AA00AA82AB831207C26003A380F8C3E5829AF582E5839BF58322AC
:0D00060075813B1207DEE5826003020003F6
:1C07C20020F71430F6148883A88220F507E6A88375830022E280F7E49322E02246
:0407DE0075820022FE
:00000001FF
