:03000000020006F5
:03005F0002000399
:030003000200DD1B
:2000620075B1677E007F01EE24FFFCEF34FFFD8C068D07EC4D70F0E5B130E7FB75B288228F
:20008200759850758920758DDCD28E438E10438780D29943A4012275FFDE75FFAD1200621E
:2000A20012008243E10443E34022AF8210990280FB8F992210980280FBAF998F82C0071202
:2000C20000ACD0078F82222098057582FF800BC2988599821200AC8599822212009975820E
:2000E200201200AC1201F71201DB74FBC0E0740AC0E07480C0E01203831581158115817499
:2001020004C0E0740BC0E07480C0E01203831581158115811200B68582097582041201E561
:20012200858208120A5DAC82AD83AEF0FFC004C005C006C00790999A75F01974401202011A
:20014200AC82AD83AEF0FFE58124FCF581C004C005C006C00790000075F07A744412020154
:20016200AC82AD83AEF0FFE58124FCF581E4C0E0C0E0C0E07443C0E08C828D838EF0EF12CE
:20018200097EAC82AD83AEF0FFE58124FCF5818C828D838EF0EF12030585820A85830BAE68
:2001A200087F00C006C0077423C0E0740BC0E07480C0E0120383E58124FBF581C00AC00B17
:2001C2007432C0E0740BC0E07480C0E0120383E58124FBF5810201012275D10375AA805330
:1F01E200ABFC228582AC53AADF43AA10E5AA30E5FB859C822253BDEF53A5EF439010225A
:200AFB005374617274200D0A00656E746572206B657920746F207265616420412F442069F3
:200B1B006E707574200D0A0041445F76616C75653A2025640D0A000D6D696C6C69766F6C4C
:090B3B0074733A2025640A0D00D0
:200201001202A4BC0003020331EF60FA30D502B2D1E583B4FF03020347E582B4FF030203D1
:2002210047258340072482400B0203312483145003020347F582EA8DF0A4A8F0EA8EF0A4E0
:2002410028F8E435F0F9EB8DF0A428E935F0F9E433CA8FF0A429F9EA35F0FAEBF88EF0A40C
:2002610029F9EA35F0FAE433FBEC8DF0A429F9EA35F0FAE43BFBE88FF0A42AFAEB35F0FBB4
:20028100E433CCFD8EF0A42AFAEB35F0FBE43CFCED8FF0A42BFBEC35F0FC20E7031202D2DD
:0302A10002031045
:2002A400AA82AB83A2F73392D1F5826002D2F7ACF0E58124F9F8E6FD08E6FE0886F008E6BD
:0E02C400A2F73392D5F5836002D2F7AFF02295
:06003500E478FFF6D8FD9F
:2002D2007804EC7011E58224F8500AF582E4C9CACBFCD8EF22EC7820058220E713D582012B
:1302F20022C3E933F9EA33FAEB33FBEC33FCD8EA15822239
:200013007900E94400601B7A00900B4F780175AF00E493F2A308B8000205AFD9F4DAF2751B
:02003300AFFF1D
:20003B007800E84400600A790175AF00E4F309D8FC7800E84400600C7900900001E4F0A3B4
:04005B00D8FCD9FAFA
:0B0305007F8E120A81F58385F08222B2
:20031000B98003EA13B34010EA2401FAE43BFBE43CFC50047C800582BC000EBB000BBA0031
:2003300008E4F5F0F583F58222A2D1E582138CF092F78B838A8222E4F583F58275F080F4F1
:0F035000A2D11322E4F583F58275F0C0747F22E9
:20035F00C00D85810D1200ACD00D2285823185833285F033E4F52EF52FF530850C3490031F
:20037F005F02045AC00D85810DE50D24FBFF8F34E4F52EF52FF530E50D24FBF8863108864E
:0D039F003208863390035F12045AD00D22FD
:2003AC00AF82C024C025C0261203B98007C022C0238F8222158115811581052CE4B52C024A
:2003CC00052D22AF8274302FFF24C6500A74072FFF3000034307208F820203ACE582FFC444
:2003EC00540FF582C0071203CFD007740F5FF5820203CF85820E85270F8528108529118597
:20040C002A12AA2B751320EA2AFAE512235401FF8A064EFAE50F250FF50FE51033F510E585
:20042C001133F511E51233F512C3EA950E4008EAC3950EFA430F01E51314FF8F1370C88596
:20044C000F2785102885112985122A8A2B22858222858323852E24852F25853026E4F52C62
:20046C00F52DAD31AE32AF338D828E838FF0120A41FC74012DF531E43EF5328F33ECFF7088
:20048C000302095FBF25028003020957C201C202C203C204C205C206C207C20875350075C5
:2004AC0036007537FFAA31AB32AE338A828B838EF0120A41FFA3AA82AB838A318B328E338C
:2004CC00BF25078F821203AC8098BF3000402DEF24C6402874FFB53712E53675F00AA42FD0
:2004EC00FC24D0F53670C4D20280C0E53775F00AA4FC8F05ED2C24D0F53780AFBF2E0A74FB
:20050C00FFB537A775370080A2BF6100400CEF248540075307DFD2008002C200BF20028074
:20052C006DBF2B028063BF2D028059BF42028063BF43028068BF44030206FDBF46030207BE
:20054C0013BF48030204B7BF49030206FDBF4A030204B7BF4C028040BF4F03020704BF50E2
:20056C0003020692BF5302805ABF54030204B7BF5503020709BF580302070EBF5A03020495
:20058C00B7020717D2010204B7D2030204B7D2040204B7D2060204B7D2070204B730060A58
:2005AC00E53414F9893487078011E53424FEFE8E348E018705098706198D078F821203AC02
:2005CC00020720E53424FDFE8E348E01870409870509870619198C278D288E298C828D8338
:2005EC008EF0120966AD82AE8374FFB537028D37200126C3ED95365020E536C39DF536AEE5
:20060C00368E041EEC6010758220C006C0051203ACD005D00680EA8E36AE37852782852890
:20062C00838529F0120A41FCFF602F8E041EC374808CF063F08095F050208F82C006C0055F
:20064C001203ACD005D006AA27AB28AC290ABA00010B8A278B288C2980C120010302072032
:20066C00C3ED95364003020720E536C39DF536AE368E041EEC700302071E758220C00612D8
:20068C0003ACD00680EBE53424FDFC8C348C01870209870309870419198A278B288C29AC34
:2006AC0029BC800040047F438014BC600040047F50800BBC400040047F4980027F588F8203
:2006CC00C0071203AC75823A1203AC7582301203AC7582781203ACD007BF4902800BBF5001
:2006EC000280068528821203E88527821203E88023D20575350A801C753508801775350A48
:20070C008012753510800DD20880098F821203AC80028E3630085CE53424FCFE8E348E015D
:20072C0087020987030987040987061919198A278B288C298E2A75274475280B7529808520
:20074C00273985283A85293B74012539FAE4353AFCAE3B8A278C288E29853982853A838535
:20076C003BF0120A41FEFF700302046E8F821203AC80CCE535700302046E75381930062DB9
:20078C00E53414F9893487048C027B007C007E008A278B288C298E2A200566AA277B007CB8
:2007AC00007E008A278B288C298E2A8054300721E53424FCFE8E348E01870209870309877E
:2007CC00040987061919198A278B288C298E2A8030E53424FEFE8E348E01870409870619E3
:2007EC00EE3395E0FBFA8C278E288B298A2A200510AA27AB287C007E008A278B288C298E17
:20080C002A300522E52A30E71BC3E49527FAE49528FBE49529FCE4952AFE8A278B288C29B9
:20082C008E2A8002C205D209A9387E00752B00853582C006C0011203FFD001D00620090B1F
:20084C00E52BC4FCE7FB4CF7198002A72B0EB209E52745284529452A70D289388E05E5365A
:20086C007003753601200224200121ED04FEAC36C3EE9C5015758220C006C005C0041203C7
:20088C00ACD004D005D0061C80E68C3630050E75822DC0051203ACD00515368023ED6020C0
:2008AC0030030E75822BC0051203ACD0051536800F30040C758220C0051203ACD005153697
:2008CC00200126AE368E041EC3ED9C502F3002067B307C0080047B207C008B82C006C005D4
:2008EC001203ACD005D00680DCC3ED95365008E536C39DF536800775360080028E36A93852
:20090C008D068E051EED6026B20920090A09E7C4540FFD8D2B80078705740F5DF52B852B97
:20092C0082C006C0011203CFD001D00680D420010302046EAE368E051EED700302046E754D
:1A094C008220C0061203ACD00680EB8F821203AC02046E852C82852D832257
:0B0B44003C4E4F20464C4F41543E00F9
:18096600AA82AB83120A416003A380F8C3E5829AF582E5839BF583226C
:20097E001202A430D502B2D1BF0009BC0003020354020347BC0003020331E583B4FF0BE5EB
:20099E0082B4FF03020354020331E582B4FF03020347C395835007247F400B02033124800F
:2009BE00145003020347F582C3ED9AEE9BEF9C40111582C3EA33F9EB33FAEC33FBE433FC8B
:2009DE008005E4CCCBCAF9C08275F019C3E99DEA9EEB9FEC9400D5F002802D400EE99DF95A
:2009FE00EA9EFAEB9FFBEC9400FCC3B3E833F8E58233F582E58333F583C3E933F9EA33FABA
:200A1E00EB33FBEC33FC80C4B3E4F938FAE43582FBE43583FCD082500405827C801202D241
:030A3E0002032888
:0D00060075813B120A7BE582600302000356
:1C0A410020F71430F6148883A88220F507E6A88375830022E280F7E49322E022C4
:0B0A5D00E4AC82FBFAF97486020A7117
:130A6800FCABF0AA83A982749EC2D1F5821202D202031075
:040A7B00758200225E
:200A7F007F9E120AE930D103020331C3EF9582500974FFF5F0F583F582227900120AA689AC
:070A9F00828A838BF0EC2238
:200AA6006040F82582500274FFF582E824F8501ECCCBCAF9E4CC24F85014CBCAF9E4CB2458
:200AC600F8500BCAF9E4CA24F8500379002224086010F8C3EC13FCEB13FBEA13FAE913F90B
:030AE600D8F12222
:120AE900AA82AB83A2F73392D1F5826002D2F7ACF02212
:00000001FF
