:0400000002001132B7
:03000B000201707F
:17006A00E4F522F523F524F5257528B6752901753A01F53B753E04B0
:03008B0002000E62
:03000E00020109E3
:20008E0075B1677E007F01EE24FFFCEF34FFFD8C068D07EC4D70F0E5B130E7FB75B2882263
:2000AE00759850758920758DDCD28E438E10438780D29943A4012275FFDE75FFAD12008EC6
:2000CE001200AE43E10443E34022AF8210990280FB8F992210980280FBAF998F82C00712AA
:2000EE0000D8D0078F82222098057582FF800BC2988599821200D8859982221200C5120142
:20010E004312015912015F12018174AEC0E07419C0E07480C0E01211E61581158115817559
:20012E0082201200D81201F5753A01E4F53BF524F52580F12253A7C043A7C043B03F43A614
:20014E003F53BDEF53A5EF4390102243A802D2AF22438E085389F0438901C28CE4F58AF5BF
:20016E008C22C0E0C0D00522E4B522020523D0D0D0E03275D10375AA8043AB01228582AC59
:20018E0053AADF43AA10E5AA30E5FB859C8222E582FF7012120E63750E04750F001218E58F
:2001AE00AD82AE838031BF0116120E63750E03750F001218E5AD82AE83ED04F5828018BF8F
:2001CE000312120E63750E02750F001218E5AE82AF83800375820422D2B7D2A1D2A0D2A27D
:2001EE00D2A3D2A5D2B62274C0C0E07419C0E07480C0E01211E6158115811581746FC0E078
:20020E00741AC0E07480C0E01211E61581158115811200E285822630B11D30B01A74B5C041
:20022E00E0741AC0E07480C0E01211E61581158115811202A4805E30B11D20B01A74D9C0B8
:20024E00E0741AC0E07480C0E01211E61581158115811202A5803E20B11D30B01A7403C08D
:20026E00E0741BC0E07480C0E01211E615811581158112048B801E20B11B20B018742CC08F
:20028E00E0741BC0E07480C0E01211E61581158115811207452222745DC0E0741BC0E0742C
:2002AE0080C0E01211E6158115811581120AF3120AF3752700E527242AF9758200C001126E
:2002CE00019DE582D001F7E5272432F9758201C00112019DE582D001F7E5272432F9870767
:2002EE007E00E527242AF987057C00C007C006C005C0047469C0E0741BC0E07480C0E012AF
:20030E0011E6E58124F9F581052774F8252750A5752700753C00C3E53C95274005E527B513
:20032E003C22753D01E53C2432F98707C3EF953D400EE53C242AF98782120B1C053D80E57D
:20034E00053C80D2120AF3E4F522F523F58AF58CD28C753C00C3E53C9527400AE527B53CE4
:20036E00028003020426753D01E53C2432F98707C3EF953D5003020413AE277F000EBE00FD
:20038E00010F8E828F8385280E85290F120FE2AE82AF83C3EE9522EF952350177472C0E044
:2003AE00741BC0E07480C0E01211E6158115811581800C30B20930B40630B30320B5BA12B9
:2003CE000C0C85823EE53C242AF9E7FFB53E02802FE4F53AF53BAE3E7F00C024C025C00683
:2003EE00C007747EC0E0741BC0E07480C0E01211E6E58124F9F581C2B7120AF3D2B780053B
:20040E00053D020377E53A453B600D0524E4B524020525053C020363E53A453B7004C28CE8
:20042E00803F852248852349C2A174512548FE74013549FFC3E5229EE5239F40EDD2A17467
:20044E00B0C0E0741BC0E07480C0E01211E6158115811581C28C052774F825274003020336
:20046E0021E53A453B601574BBC0E0741BC0E07480C0E01211E61581158115812274E0C0A6
:20048E00E0741BC0E07480C0E01211E615811581158174EAC0E0741BC0E07480C0E01211FC
:2004AE00E6158115811581742DC0E0741CC0E07480C0E01211E61581158115817474C0E02E
:2004CE00741CC0E07480C0E01211E6158115811581E4F522F5231201E674AFC0E0741CC060
:2004EE00E07480C0E01211E615811581158130B20930B40630B30320B5D7D28C74DAC0E0FC
:20050E00741CC0E07480C0E01211E6158115811581C2B6C3E52294F3E523940340F5D2B619
:20052E0074F6C0E0741CC0E07480C0E01211E6158115811581E4F522F5237405C0E0741D57
:20054E00C0E07480C0E01211E615811581158175270075820412018B85823FAE277F00C0FF
:20056E0006C0077418C0E0741DC0E07480C0E01211E6E58124FBF58130B20930B40630B3F3
:20058E000320B5F420B205754000801620B405754001800E20B305754002800620B50375E0
:2005AE004003AE407F00C006C0077428C0E0741DC0E07480C0E01211E6E58124FBF581E506
:2005CE00407015F522F523C2A0C3E5229451E523940140F5D2A0804F7401B54016E4F5227A
:2005EE00F523C2A2C3E5229451E523940140F5D2A280347402B54016E4F522F523C2A3C30C
:20060E00E5229451E523940140F5D2A380197403B54014E4F522F523C2A5C3E5229451E572
:20062E0023940140F5D2A5E4F522F523C3E52294A2E523940240F574AB253F4007754101E1
:20064E00C2A08024E53F24AA500F7456253F4009754102C2A0C2A2800FE53F245550097546
:20066E004103C2A0C2A2C2A3E4F522F5237433C0E0741DC0E07480C0E01211E615811581A9
:20068E001581C3E52294A2E523940240F5E4F522F523E527242AF8A640E5272432F8A64157
:2006AE001201E6C3E52294A8E523940040F5052774F825274003020560E4F522F523C2A059
:2006CE00C2A2C2A3C2A5C3E5229451E523940140F51201E6752700E5272432F987077E005F
:2006EE00E527242AF987057C00C007C006C005C0047469C0E0741BC0E07480C0E01211E632
:20070E00E58124F9F581052774F8252750C9E4F522F5237457C0E0741DC0E07480C0E01280
:20072E0011E6158115811581C3E522942AE523940D40F5120CCD22745DC0E0741BC0E0746B
:20074E0080C0E01211E6158115811581120AF31201E6E4F522F523747EC0E0741DC0E0744E
:20076E0080C0E01211E6158115811581D28C20B20302082885224885234974072548FEE471
:20078E003549FFC3E5229EE5239F40EE75820412018B8582421218DAAC82AD83AEF0FFC0F0
:2007AE0004C005C006C00790333375F073743F120EAEAC82AD83AEF0FFE58124FCF581E4AB
:2007CE00C0E0C0E0747FC0E07443C0E08C828D838EF0EF1217FBAC82AD83AEF0FFE58124AD
:2007EE00FCF581E4C0E0C0E07480C0E0743FC0E08C828D838EF0EF1210BAAC82AD83AEF00B
:20080E00FFE58124FCF5818C828D838EF0EF12115C85824385834402077CC043C04474A08F
:20082E00C0E0741DC0E07480C0E01211E6E58124FBF581C2A085430E85440F852882852954
:20084E0083120FE2AE82AF83C3E5229EE5239F40E4D2A085224885234974322548FEE435F3
:20086E0049FFC3E5229EE5239F40EE74B2C0E0741DC0E07480C0E01211E61581158115818F
:20088E0020B20302092275820412018B8582421218DAAC82AD83AEF0FFC004C005C006C058
:2008AE000790000075F0E07440120EAEAC82AD83AEF0FFE58124FCF581E4C0E0C0E0747FBE
:2008CE00C0E07443C0E08C828D838EF0EF1217FBAC82AD83AEF0FFE58124FCF581E4C0E0E9
:2008EE00C0E07480C0E0743FC0E08C828D838EF0EF1210BAAC82AD83AEF0FFE58124FCF586
:20090E00818C828D838EF0EF12115C85824585834602088EC045C04674CFC0E0741DC0E0ED
:20092E007480C0E01211E6E58124FBF581E4F522F523C2A0852882852983121167AC82ADD7
:20094E0083AEF0FFC004C005C006C007900000E4F5F0743F120EAEAC82AD83AEF0FFE58118
:20096E0024FCF581852282852383C007C006C005C004121167A882A983AAF0FBD004D0054B
:20098E00D006D007C004C005C006C007888289838AF0EB120FB2AF82E58124FCF581EF70AC
:2009AE0093D2A0854582854683121167AC82AD83AEF0FFE4C0E0C0E0C0E0743FC0E08C82E0
:2009CE008D838EF0EF1210BAAC82AD83AEF0FFE58124FCF581852882852983C007C006C00C
:2009EE0005C004121167A882A983AAF0FBD004D005D006D007C004C005C006C007888289AC
:200A0E00838AF0EB120EAEAC82AD83AEF0FFE58124FCF581852282852383C007C006C00575
:200A2E00C004121167A882A983AAF0FBD004D005D006D007C004C005C006C00788828983ED
:200A4E008AF0EB120FB2AF82E58124FCF581EF60030209B1C2A0C3E52294A8E523940040D1
:200A6E00F5D2A074DCC0E0741DC0E07480C0E01211E6158115811581752700D28C7582018F
:200A8E0012019D858247120BA2120C0CE582FFB54711C2A1120AF3D2A10524E4B5240B0513
:200AAE00258007C2B7120AF3D2B7052774FB252750C9C024C02574F2C0E0741DC0E0748077
:200ACE00C0E01211E6E58124FBF581120AF31201E6C28CE4F58AF58CF545F546F543F54444
:200AEE00F522F52322E4F58AF58CD28CE4F522F523C3E52294A8E523940040F5C2B6C3E54B
:200B0E00229451E523940140F5D2B6C28C22AF82E4F522F523F58AF58CD28C750E03750F4A
:200B2E0000852882852983C007120E3AAD82AE83D007C3E5229DE5239E40E0EF7004C2A0FD
:200B4E008013BF0104C2A2800CBF0204C2A38005BF0302C2A5AE28E529C313CE13CEFF7589
:200B6E000E03750F00852882852983C007C006120E3AAC82AD83D006D007EC2EFEED3FFF3D
:200B8E00C3E5229EE5239F40CC1201E6C28CE4F522F52322AF82E4F522F523F58AF58C85E7
:200BAE00450E85460F852882852983C007120FE2AD82AE83D007C3E5229DE5239E40E0EF7D
:200BCE007004C2A08013BF0104C2A2800CBF0204C2A38005BF0302C2A5E4F522F523854335
:200BEE000E85440F852882852983120FE2AE82AF83C3E5229EE5239F40E41201E622852247
:200C0E004885234974072548FEE43549FFC3E5229EE5239F40EE20B22730B42430B32130D4
:200C2E00B51E74FDC0E0741DC0E07480C0E01211E615811581158130B2FD758200020CCC82
:200C4E0030B22620B42330B32030B51D7404C0E0741EC0E07480C0E01211E615811581155A
:200C6E008130B4FD758201805530B22630B42320B32030B51D740BC0E0741EC0E07480C02E
:200C8E00E01211E615811581158130B3FD758202802C30B22630B42330B32020B51D74128C
:200CAE00C0E0741EC0E07480C0E01211E615811581158130B5FD7582038003758204227504
:200CCE002700753C00C3E53C95274005E527B53C22753D01E53C2432F98707C3EF953D40B5
:200CEE000EE53C242AF98782120B1C053D80E5053C80D2120AF3E4F522F523F58AF58CD200
:200D0E008C753C00C3E53C9527400AE527B53C028003020DD5753D01E53C2432F98707C3C4
:200D2E00EF953D5003020DC2AE277F000EBE00010F8E828F8385280E85290F120FE2AE82C3
:200D4E00AF83C3EE9522EF952350177472C0E0741BC0E07480C0E01211E6158115811581C9
:200D6E00800C30B20930B40630B30320B5BA120C0C85823EE53C242AF9E7FFB53E02802F2E
:200D8E00E4F53AF53BAE3E7F00C024C025C006C007747EC0E0741BC0E07480C0E01211E6E3
:200DAE00E58124F9F581C2B7120AF3D2B78005053D020D26E53A453B600D0524E4B524022B
:200DCE000525053C020D12E53A453B7004C28C803F852248852349C2A174512548FE740171
:200DEE003549FFC3E5229EE5239F40EDD2A174B0C0E0741BC0E07480C0E01211E61581157E
:200E0E00811581C28C052774F825274003020CD0E53A453B601574BBC0E0741BC0E0748054
:0C0E2E00C0E01211E6158115811581222B
:2019AE000D2053746172742074686547616D65210A0053776974636820746F20796F757274
:2019CE002064657369726564206D6F64653A200D0A200909202020206D6F646520302020DC
:2019EE00535330286F6666292020535331286F6666292020200D0A200909096D6F6465205D
:201A0E00312020535330286F6666292020535331286F6E29202020200D0A200909096D6FF2
:201A2E00646520322020535330286F6E29202020535331286F6666292020200D0A200909CD
:201A4E00096D6F646520332020535330286F6E29202020535331286F6E29202020200D0A37
:201A6E000050726573732061206B6579206F6E20796F757220636F6D7075746572206166FF
:201A8E00746572207468652073656C656374696F6E20746F2073746172742074686520676D
:201AAE00616D65200D0A00596F75206172652063757272656E746C7920696E206D6F646555
:201ACE0020302C20474C21200D0A00596F75206172652063757272656E746C7920696E20BD
:201AEE006D6F646520312C20434841212043484121200D0A00596F75206172652063757266
:201B0E0072656E746C7920696E206D6F646520322C20456D6D6D6D2E2E2E200D0A00596F3D
:201B2E0075206172652063757272656E746C7920696E206D6F646520332C2077616E6E6152
:201B4E00206265206661737465723F200D0A0067616D652072756C650D0A0025757C25753C
:201B6E00200D0A0054494D45204F5554200D0A0047414D45204F5645522C20796F752070F3
:201B8E007265737365642025752C616E6420796F75722073636F7265206973202575200D8A
:201BAE000A00636F7272656374200D0A00796F75207375636365737366756C6C7920706151
:201BCE0073736564207468652067616D6521200D0A000D2052756C653A200A000D20506CC3
:201BEE00617965722031207573652070757368627574746F6E20616E6420706F74656E74DF
:201C0E00696F6D6574657220746F2063726561746520612073657175656E6365200A000DF9
:201C2E002070757368627574746F6E20696E64696361746520746865204C454420616E6410
:201C4E002075736520706F74656E74696F6D6574657220746F2061646A75737420626C6955
:201C6E006E6B73200A000D207468656E20706C617965723220706C61792074686520676106
:201C8E006D6520776974682070726570726F6772616D6D65642073657175656E6365200A50
:201CAE00000D205075736820616E7920627574746F6E20746F207374617274206D6F64690B
:201CCE006669636174696F6E21200A000D2047616D6520737461727420696E203320736527
:201CEE00636F6E6473200A000D2067616D65207374617274200A000D20506C61796572318B
:201D0E002773207475726E200A000D2053657175656E6365202575200A000D204C4544209C
:201D2E002575200A000D206E6578742073657175656E636520737461727420696E203220B5
:201D4E007365636F6E64730A000D20506C61796572322773207475726E20737461727420BF
:201D6E00696E203130207365636F6E6473200A000D53657420626C696E6B20726174652C63
:201D8E00207468656E207072657373205042300A0D000D426C696E6B20526174653A2025F8
:201DAE00640A0D000D5365742044656C61792C207468656E207072657373205042300A0D11
:201DCE000044656C61793A202575200A0D000D426567696E6E696E67207468652047616DA7
:201DEE00650A0D0073636F72653A2025640A00504230200D0A00504231200D0A0050423299
:0B1E0E00200D0A00504233200D0A0096
:200E3A007A10E4FBFCE58225E0F582E58333F583EB33FBEC33FCEB950EF5F0EC950F4006C0
:090E5A00FCABF0438201DADD2259
:0A008100750801E4F509F50AF50B16
:200E630085080E85090F850A10850B11904E6D75F0C67441120FFFAC82AD83AEF0FF743904
:200E83002CF50874303DF509E43EF50AE43FF50BAC0AAD0B8C82747F5DF58322AE82AF833B
:0B0EA3008E088F09750A00750B0022F5
:200EAE00120F51BC0003021194EF60FA30D502B2D1E583B4FF030211AAE582B4FF0302116E
:200ECE00AA258340072482400B02119424831450030211AAF582EA8DF0A4A8F0EA8EF0A4E2
:200EEE0028F8E435F0F9EB8DF0A428E935F0F9E433CA8FF0A429F9EA35F0FAEBF88EF0A453
:200F0E0029F9EA35F0FAE433FBEC8DF0A429F9EA35F0FAE43BFBE88FF0A42AFAEB35F0FBFA
:200F2E00E433CCFD8EF0A42AFAEB35F0FBE43CFCED8FF0A42BFBEC35F0FC20E703120F7F69
:030F4E000211731A
:200F5100AA82AB83A2F73392D1F5826002D2F7ACF0E58124F9F8E6FD08E6FE0886F008E603
:0E0F7100A2F73392D5F5836002D2F7AFF022DB
:06004000E478FFF6D8FD94
:200F7F007804EC7011E58224F8500AF582E4C9CACBFCD8EF22EC7820058220E713D5820171
:130F9F0022C3E933F9EA33FAEB33FBEC33FCD8EA1582227F
:20001E007900E94400601B7A00901E24780175AF00E493F2A308B8000205AFD9F4DAF27528
:02003E00AFFF12
:200FB200FFA8811818121131D2D133E6400730E70B7582002220E70675820122C2D1121158
:100FD20013E97003F5822220D101B3E433F58222B2
:1D0FE200E582850EF0A4C582C0F0850FF0A4D0F025F0C583850EF0A42583F58322BF
:200FFF00AAF0FBE582850EF0A4FCADF0E583850EF0A42DFDE435F0FEE582850FF0A42DFD9D
:20101F00E5F03EFEE433FFEA850EF0A42EFEE5F03FFFE583850FF0A42EFEE5F03FFFE58204
:20103F008510F0A42EFEE5F03FFFEB850EF0A42FFFEA850FF0A42FFFE5838510F0A42FFFEA
:0E105F00E5828511F0A42F8EF08D838C822205
:20106D00E50E450F60467A01E50E25E0F50EE50F334012F50FE582950EE583950F40030A20
:20108D0080E6C3E50F13F50FE50E13F50EC3E582950EF5F0E583950F4005F58385F082C3D1
:0D10AD00E50F13F50FE50E13F50EDAE12245
:200046007800E84400600A790175AF00E4F309D8FC7800E84400600C7900900001E4F0A3A9
:04006600D8FCD9FAEF
:2010BA00120F517900E583B58202800D50031217C9E583C3958212192EE5D0C465D020E16E
:2010DA0017EA2DFAEB3EFBEC3FFC5009740112192EEC4480FC021173C3EA9DFAEB9EFBEC76
:1910FA009FFC500FC3E499F9E49AFAE49BFBE49CFCB2D1120F7F02117393
:201113007901AA82E68F82B5821318E6B5F00E18E6B5830918E68A82B58202790022B480D3
:201133000FE5F0700AE5837006E58270027F00EFB6801518B6001018B6000B18B60006083B
:09115300080876002208080822B1
:0B115C007F8E121977F58385F0822248
:0C116700E4AC83AB82FAF9748E02192408
:20117300B98003EA13B34010EA2401FAE43BFBE43CFC50047C800582BC000EBB000BBA00C0
:2011930008E4F5F0F583F58222A2D1E582138CF092F78B838A8222E4F583F58275F080F480
:0F11B300A2D11322E4F583F58275F0C0747F2278
:2011C200C00D85810D1200D8D00D2285825B85835C85F05DE4F558F559F55A850C5E90114E
:2011E200C20212BDC00D85810DE50D24FBFF8F5EE4F558F559F55AE50D24FBF8865B088637
:0D1202005C08865D9011C21212BDD00D2255
:20120F00AF82C04EC04FC05012121C8007C04CC04D8F82221581158115810556E4B5560240
:20122F00055722AF8274302FFF24C6500A74072FFF3000034307208F8202120FE582FFC436
:20124F00540FF582C007121232D007740F5FF58202123285820E85510F85521085531185C3
:20126F005412AA55751320EA2AFAE512235401FF8A064EFAE50F250FF50FE51033F510E5C0
:20128F001133F511E51233F512C3EA950E4008EAC3950EFA430F01E51314FF8F1370C88525
:2012AF000F518510528511538512548A552285824C85834D85584E85594F855A50E4F556A5
:2012CF00F557AD5BAE5CAF5D8D828E838FF01218BEFC74012DF55BE43EF55C8F5DECFF7066
:2012EF00030217C2BF250280030217BAC201C202C203C204C205C206C207C208755F007548
:20130F0060007561FFAA5BAB5CAE5D8A828B838EF01218BEFFA3AA82AB838A5B8B5C8E5D3F
:20132F00BF25078F8212120F8098BF3000402DEF24C6402874FFB56112E56075F00AA42F98
:20134F00FC24D0F56070C4D20280C0E56175F00AA4FC8F05ED2C24D0F56180AFBF2E0A740B
:20136F00FFB561A775610080A2BF6100400CEF248540075307DFD2008002C200BF200280AF
:20138F006DBF2B028063BF2D028059BF42028063BF43028068BF4403021560BF46030215CD
:2013AF0076BF480302131ABF4903021560BF4A0302131ABF4C028040BF4F03021567BF5047
:2013CF00030214F5BF5302805ABF540302131ABF550302156CBF5803021571BF5A03021350
:2013EF001A02157AD20102131AD20302131AD20402131AD20602131AD20702131A30060AD9
:20140F00E55E14F9895E87078011E55E24FEFE8E5E8E018705098706198D078F8212120F76
:20142F00021583E55E24FDFE8E5E8E01870409870509870619198C518D528E538C828D8383
:20144F008EF01217E3AD82AE8374FFB561028D61200126C3ED95605020E560C39DF560AE16
:20146F00608E041EEC6010758220C006C00512120FD005D00680EA8E60AE618551828552DB
:20148F00838553F01218BEFCFF602F8E041EC374808CF063F08095F050208F82C006C00539
:2014AF0012120FD005D006AA51AB52AC530ABA00010B8A518B528C5380C1200103021583E2
:2014CF00C3ED95604003021583E560C39DF560AE608E041EEC7003021581758220C00612DD
:2014EF00120FD00680EBE55E24FDFC8C5E8C01870209870309870419198A518B528C53AC7F
:20150F0053BC800040047F438014BC600040047F50800BBC400040047F4980027F588F8267
:20152F00C00712120F75823A12120F75823012120F75827812120FD007BF4902800BBF50C7
:20154F0002800685528212124B85518212124B8023D205755F0A801C755F088017755F0A20
:20156F008012755F10800DD20880098F8212120F80028E6030085CE55E24FCFE8E5E8E01D2
:20158F0087020987030987040987061919198A518B528C538E5475511975521E75538085A1
:2015AF00516385526485536574012563FAE43564FCAE658A518C528E538563828564838578
:2015CF0065F01218BEFEFF70030212D18F8212120F80CCE55F70030212D175621930062DEB
:2015EF00E55E14F9895E87048C027B007C007E008A518B528C538E54200566AA517B007C21
:20160F00007E008A518B528C538E548054300721E55E24FCFE8E5E8E018702098703098710
:20162F00040987061919198A518B528C538E548030E55E24FEFE8E5E8E0187040987061975
:20164F00EE3395E0FBFA8C518E528B538A54200510AA51AB527C007E008A518B528C538E2B
:20166F0054300522E55430E71BC3E49551FAE49552FBE49553FCE49554FE8A518B528C53CE
:20168F008E548002C205D209A9627E00755500855F82C006C001121262D001D00620090B94
:2016AF00E555C4FCE7FB4CF7198002A7550EB209E55145524553455470D289628E05E56099
:2016CF007003756001200224200121ED04FEAC60C3EE9C5015758220C006C005C0041212F3
:2016EF000FD004D005D0061C80E68C6030050E75822DC00512120FD00515608023ED602026
:20170F0030030E75822BC00512120FD0051560800F30040C758220C00512120FD0051560ED
:20172F00200126AE608E041EC3ED9C502F3002067B307C0080047B207C008B82C006C00538
:20174F0012120FD005D00680DCC3ED95605008E560C39DF560800775600080028E60A96272
:20176F008D068E051EED6026B20920090A09E7C4540FFD8D5580078705740F5DF5558555A8
:20178F0082C006C001121232D001D00680D42001030212D1AE608E051EED70030212D1755E
:1A17AF008220C00612120FD00680EB8F8212120F0212D1855682855783223D
:0B1E19003C4E4F20464C4F41543E0011
:1A17C900E582C583F582A2D133A2D592D11392D5ECCFFCEBCEFBEACDFA22A8
:1817E300AA82AB831218BE6003A380F8C3E5829AF582E5839BF5832256
:2017FB00120F5130D502B2D1BF0009BC00030211B70211AABC0003021194E583B4FF0BE553
:20181B0082B4FF030211B7021194E582B4FF030211AAC395835007247F400B0211942480BF
:20183B001450030211AAF582C3ED9AEE9BEF9C40111582C3EA33F9EB33FAEC33FBE433FC8E
:20185B008005E4CCCBCAF9C08275F019C3E99DEA9EEB9FEC9400D5F002802D400EE99DF9CE
:20187B00EA9EFAEB9FFBEC9400FCC3B3E833F8E58233F582E58333F583C3E933F9EA33FA2E
:20189B00EB33FBEC33FC80C4B3E4F938FAE43582FBE43583FCD082500405827C80120F7FFC
:0318BB0002118B8C
:0D001100758165121971E582600302000E11
:1C18BE0020F71430F6148883A88220F507E6A88375830022E280F7E49322E02239
:0B18DA00E4AC82FBFAF97486021924CA
:2018E500C2D5E58330E70DD2D5E4C39582F582E49583F583E50F30E70BE4C3950EF50EE429
:16190500950FF50F12106D30D50BE4C39582F582E49583F58322BA
:13191B00FCABF0AA83A982749EC2D1F582120F7F02117388
:20192E006040F82582500274FFF582E824F8501ECCCBCAF9E4CC24F85014CBCAF9E4CB24C1
:20194E00F8500BCAF9E4CA24F8500379002224086010F8C3EC13FCEB13FBEA13FAE913F974
:03196E00D8F1228B
:041971007582002259
:201975007F9E12199C30D103021194C3EF9582500974FFF5F0F583F58222790012192E89DD
:07199500828A838BF0EC2233
:12199C00AA82AB83A2F73392D1F5826002D2F7ACF02250
:00000001FF
