:040000000200513277
:01000B0032C2
:0100130032BA
:01001B0032B2
:0100230032AA
:01002B0032A2
:01003300329A
:01003B003292
:01004300328A
:03004B0002077A2F
:2000AA00E4F53DF53EF53FF540F544754508754607754902F54A754B32F54C755914F55A64
:0300CA0002004EE3
:03004E000205D3D5
:2000CD0075B1677E007F01EE24FFFCEF34FFFD8C068D07EC4D70F0E5B130E7FB75B2882224
:2000ED00759850758920758DDCD28E438E10438780D29943A4012275FFDE75FFAD1200CD48
:20010D001200ED43E10443E34022AF8210990280FB8F992210980280FBAF998F82C007122B
:20012D000117D0078F82222098057582FF800BC29885998212011785998222C00F85810F88
:20014D00E50F24FBF886820886830886F012165DE5828583F045F070028062E50F24FBFF71
:20016D008F0BE50F24FBF8860808860908860A90000175F000120F0390000175F0001216D8
:20018D005DAE827F00C3EF9E501FEF2401F582E43400F583E0FDBD0A0DEF2401F582E43418
:2001AD0000F583740DF00F80DC752D01752E00752F00752C008E307582C6120459D00F2268
:2001CD0075270074C0252740177532277533007534407531007535017582C61204D380E3E6
:2001ED0075280C752D28752E00752F40752C007530017582C61204592275322A7533007575
:20020D0034407531017535027582C61204D374FFB52A05758200805F7F008F068EF005F0B0
:20022D007C017D008006EC2CFCED33FDD5F0F7AA2A7B00EA5204EB5205EC4D600774312FFF
:20024D00F58280330E8E07BE080040D0E52B30E0057582398021E52B30E10575822A80171A
:20026D00E52B30E205758230800DE52B30E30575822380037582FF22AF82E4FDFEEF701D2D
:20028D00C006C005742FC0E07417C0E07480C0E0120148158115811581D005D006C006C076
:2002AD00057408C0E0E4C0E07408C0E0E4C0E07408C0E0E4C0E07408C0E0E4C0E07408C070
:2002CD00E0E4C0E07445C0E07417C0E07480C0E0120148E58124F3F58190A12075F007E4A6
:2002ED001203F4D005D0067F00C007C006C005120206AC82D005D006D0078C03BCFF0280D6
:20030D0003BB2A17902710E4F5F0C007C006C0051203F4D005D006D00780CEBB232AC00648
:20032D00C005120206AC82D005D006BC2313902710E4F5F0C006C0051203F4D005D00680B7
:20034D00DD8D828E830203F38B027C00C007C006C005C004C003C002C002C0047455C0E008
:20036D007417C0E07480C0E0120148E58124FBF581D002D003D004D005D0068D118E129069
:20038D00000AC004C003C002120E76A882A983D002D003D004D007EA28F8EC39F9E824D0BD
:2003AD00FDE934FFFEC007C006C005C003120206AC82D003D005D006D007ECB5031B9027F1
:2003CD0010E4F5F0C007C006C005C0031203F4D003D005D006D00780CC0FBF050050030250
:2003ED0002F68D828E8322AC82AD83AEF0FF780079007A007B00C3E89CE99DEA9EEB9F50A6
:20040D000F08B8000909B900050ABA00E90B80E62220C7FDD2C530C3FDC2C5C2C322858250
:20042D00C210C30280FB228582C2D2C410C30280FB2230C3FD85C282C2C32230C3FDAFC2E9
:20044D00C2C3D2C410C30280FB8F8222AF82C2AFC00712041ED00774FE5FF58212042B856F
:20046D002C8212042B7F00AD307E001DBDFF011E8F037C00C3EB9DEC64808EF063F080959F
:20048D00F0501FEF252DFCE4352EFDAE2F8C828D838EF0121675F582C00712042BD0070FF4
:2004AD0080C5AE307F001EBEFF011FEE252DFEEF352EFFAD2F8E828F838DF0121675F58274
:2004CD00120434D2AF22AF82C2AFC00712041ED00774FE5FF582C00712042B853182120410
:2004ED003412041ED00774014FF58212042B7F00AD357E001DBDFF011E8F037C00C3EB9D04
:20050D00EC64808EF063F08095F0502ED2C2EF2532FCE43533FDAE34C007C006C005C00493
:20052D0012043FAB82D004D005D006D0078C828D838EF0EB120E4E0F80B6C2C2AE357F00B6
:20054D001EBEFF011FEE2532FEEF3533FFAD34C007C006C005120448AC82D005D006D007B9
:20056D008E828F838DF0EC120E4ED2AF22752223752300752310752400752D22752E007563
:20058D002F40752C2075300175823012045922752204752D22752E00752F40752C23753071
:2005AD000175823A12045975226B752300752400752D22752E00752F40752C207530017533
:2005CD00823A1204592212010475822012011712070712070B12070F12075F12077474582C
:2005ED00C0E07417C0E07480C0E012107A158115811581E4F536F537C3E5369432E53794A2
:20060D000040F51201CD7462C0E07417C0E07480C0E012014815811581158190005174EC25
:20062D00F07409A3F075EB1375FBF6900057E0FEA3E0FF8E4D8F4E8E4F8F508E518F5274E5
:20064D00FFC39551F5EA74FF9552F5FA74FFC3954DF5EC74FF954EF5FC74FFC3954FF5ED81
:20066D0074FF9550F5FDE4F536F537C3E5369464E537940040F5747DC0E07417C0E074807D
:20068D00C0E012107A1581158115811201CD7491C0E07417C0E07480C0E012014815811505
:2006AD008115811207B5E4F536F537C3E53694DCE537940550051209DF80F0900057E0FE86
:2006CD00A3E0FF8E4D8F4E8E4F8F508E518F5274FFC39551F5EA74FF9552F5FA74FFC39548
:2006ED004DF5EC74FF954EF5FC74FFC3954FF5ED74FF9550F5FD1201212243A5F02275E18C
:20070D00252275D10375AA8043AB01228582AC53AADF43AA10E5AA30E5FB859C8212169105
:20072D00AC82AD83AEF0FFC004C005C006C00790851F75F0877440120D4AAC82AD83AEF062
:20074D00FFE58124FCF5818C828D838EF0EF120FFC2275D84075D98143E608D2AF75DDC2A5
:20076D0075DCC275DAC22275CF93D2C622C0E0C0D030DF2C0536E4B536020537053F054455
:20078D0075E9FF75F96FC2DF74FB253F5006754001753F0074FE254450067543017544003B
:2007AD0053D840D0D0D0E0327F007E00EF60030209DEC00674A0C0E07417C0E07480C0E0CE
:2007CD0012107A1581158115811201CD74B3C0E07417C0E07480C0E01201481581158115AC
:2007ED008174CBC0E07417C0E07480C0E012107A158115811581758201120285858245850D
:20080D008346C045C04674EDC0E07417C0E07480C0E012107AE58124FBF5818545478546C4
:20082D00481201CD74FBC0E07417C0E07480C0E01201481581158115817406C0E07418C032
:20084D00E07480C0E012107A15811581158175820112028585824985834AC049C04A741BE4
:20086D00C0E07418C0E07480C0E012107AE58124FBF5811201CD7424C0E07418C0E074803C
:20088D00C0E0120148158115811581742FC0E07418C0E07480C0E012107A1581158115812D
:2008AD0075820112028585824B85834CC04BC04C7444C0E07418C0E07480C0E012107AE544
:2008CD008124FBF581D006EE60030209D9C006900051E0C0E0A3E0C0E0744DC0E07418C0F3
:2008ED00E07480C0E012107AE58124FBF581746BC0E07418C0E07480C0E012107A1581155A
:20090D00811581120121AD82D006BD6623900051E0C0E0A3E0C0E074A5C0E07418C0E07457
:20092D0080C0E012107AE58124FBF5817E018097BD6946900051E0FBA3E0FC900051740F52
:20094D002BF0E43CA3F0900051E0FBA3E0FC74FFC39BF5EB74FF9CF5FBC006C003C0047410
:20096D00BEC0E07418C0E07480C0E012107AE58124FBF581D0060208D4BD64028003020851
:20098D00D4900051E0FCA3E0FDEC24F1FCED34FFFD900051ECF0EDA3F0900051E0FCA3E0A2
:2009AD00FD74FFC39CF5EB74FF9DF5FBC006C004C00574DFC0E07418C0E07480C0E0121057
:2009CD007AE58124FBF581D0060208D47F010207B922E543603F120D1E8582418583427572
:2009ED004300120A6D7582031207198582388583391201CDC03DC03EC041C042C038C039A3
:200A0D007400C0E07419C0E07480C0E0120148E58124F7F581E5406046120CF2AE828E3ACF
:200A2D00753B51752D3B752E00752F40752C007530017582E0120459754000C04DC04EC027
:200A4D004FC050C041C0427426C0E07419C0E07480C0E012107AE58124F7F581120CD92280
:200A6D00E545C39541F557E5469542F558C37408955774878558F063F08095F0500EE55726
:200A8D0024F0F557E55834F1F5588019C3E55794F8E55864809478500C74102557F55774CD
:200AAD000E3558F558E557C39559F582E558955AF583120E69AE82AF83C374649E74808F92
:200ACD00F063F08095F04003020B56AC49AD4A7E007F00855711E558F5123395E0F513F55C
:200AED00148C828D838EF0EF120F8EAC82AD83AEF0FF854B5B854C5CE4F55DF55EE557C3C0
:200B0D009559FAE558955A8A11F5123395E0F513F514855B82855C83855DF0E55EC007C0F7
:200B2D0006C005C004120F8EA882A983AAF0FBD004D005D006D007E82CF553E93DF554EA74
:200B4D003EF555EB3FF556802BAC49AD4A7E007F00855711E558F5123395E0F513F5148C81
:200B6D00828D838EF0EF120F8E85825385835485F055F55685575985585AC374E19553740F
:200B8D00029554E4955574808556F063F08095F0500B7553E1755402E4F555F556C3E55335
:200BAD00941FE55494FDE55594FFE5566480947F500C75531F7554FD7555FF7556FF900080
:200BCD0057E0FEA3E0FF3395E0FDFCC3E5539EE5549FE5559DE55664808CF063F08095F075
:200BED005064900057E0FEA3E0FF3395E0FDFCEEC39553F8EF9554F9ED9555FAEC9556FB47
:200C0D0088518952884F8950E5532EFEE5543FFFE5553DFDE5563CFC8E4D8F4E74FFC3951E
:200C2D0051F5EA74FF9552F5FA74FFC3954DF5EC74FF954EF5FC74FFC3954FF5ED74FF95EA
:200C4D0050F5FD020CD8900057E0FEA3E0FF3395E0FDFCC3EE9553EF9554ED9555EC64805F
:200C6D008556F063F08095F05061900057E0FEA3E0FF3395E0FDFCE5532EF8E5543FF9E5F7
:200C8D00553DFAE5563CFB88518952884F8950EEC39553FEEF9554FFED9555FDEC9556FCD0
:200CAD008E4D8F4E74FFC39551F5EA74FF9552F5FA74FFC3954DF5EC74FF954EF5FC74FF78
:200CCD00C3954FF5ED74FF9550F5FD22C37432953DE4953E50088547458548468006754564
:200CED008C75460A2275323B7533007534407531027535027582E01204D3AF3B7E00AC3C9D
:200D0D007D00EC4EF53DED4FF53E853D82853E832275325F753300753440753102753502D7
:1D0D2D007582C01204D3AF5F7E00AC607D00EC4EF541ED4FF542854182854283225D
:20172F000A54797065206469676974733B20656E6420772F230020202020202563256325FA
:20174F006325632563002563000A0D53746172740D0A0043616C6962726174696F6E3A0A97
:20176F0048656C6C6F20776F726C64210A00456E746572696E67204D61696E204C6F6F7058
:20178F000A005374617274696E67204C6162360A000D0A53657474696E67206761696E734E
:2017AF002E2E2E00456E7465722064657369726564200A68656164696E673A000D0A456E94
:2017CF0074657220646573697265642068656164696E6720696E206B6579706164000D0A13
:2017EF00646573697265643A20257500456E746572206B703A0A000D0A456E746572206B29
:20180F007020696E206B6579706164000D0A6B703A20257500456E746572206B643A0A009D
:20182F000D0A456E746572206B6420696E206B6579706164000D0A6B643A202575000D0A0F
:20184F0043757272656E742074687275737420616E676C652070773A202575000D0A5072D1
:20186F00657373206920746F20696E6372656173652C206420746F20646563726561736509
:20188F002C20616E64206620746F2066696E616C697A650A0D000D0A46696E616C207468AB
:2018AF007275737420616E676C653A202575000D0A496E63726561736564205448525553D5
:2018CF00545F414E474C455F50572025750D0A000D0A44656372656173656420544852550E
:2018EF0053545F414E474C455F50572025750D0A000A426174746572792025752C0A486513
:20190F006164696E672025752C0A2052656164696E672025750A000A48656164696E673A33
:1E192F002025752C2050572072696768742025752C205057206C6566742025750D0070
:06195800EC07AE0DCD0A04
:200D4A00120DEDBC0003021028EF60FA30D502B2D1E583B4FF0302103EE582B4FF03021014
:200D6A003E258340072482400B021028248314500302103EF582EA8DF0A4A8F0EA8EF0A48D
:200D8A0028F8E435F0F9EB8DF0A428E935F0F9E433CA8FF0A429F9EA35F0FAEBF88EF0A4B8
:200DAA0029F9EA35F0FAE433FBEC8DF0A429F9EA35F0FAE43BFBE88FF0A42AFAEB35F0FB60
:200DCA00E433CCFD8EF0A42AFAEB35F0FBE43CFCED8FF0A42BFBEC35F0FC20E703120E1B34
:030DEA00021007ED
:200DED00AA82AB83A2F73392D1F5826002D2F7ACF0E58124F9F8E6FD08E6FE0886F008E669
:0E0E0D00A2F73392D5F5836002D2F7AFF02240
:06008000E478FFF6D8FD54
:200E1B007804EC7011E58224F8500AF582E4C9CACBFCD8EF22EC7820058220E713D58201D6
:130E3B0022C3E933F9EA33FAEB33FBEC33FCD8EA158222E4
:20005E007906E94400601B7A01901958785375AF00E493F2A308B8000205AFD9F4DAF27560
:02007E00AFFFD2
:1B0E4E0020F71130F6138883A88220F509F6A8837583002280FEF280F5F022A3
:0D0E6900E58330E7076382FF6383FFA32268
:1D0E7600E5828511F0A4C582C0F08512F0A4D0F025F0C5838511F0A42583F5832223
:200E9300C00F85810FC082058105810581E50F24FBF8A90F0909E6F70809E6F70809E6F7F9
:200EB300A80F080886820886830886F0121675FAA3121675FBA3121675FF74012AFCE43BF6
:200ED300FD8F06A80F080886820886830886F0EC120E4EA3ED120E4EA3EE120E4E8A828B21
:200EF300838FF0A80F08E6120E4E850F81D00F2285820C85830D85F00E756D0C756E0075C3
:200F13006F40850870850971850A72850B73900E93121151AE82AF83AB0CAC0DAD0E8B82D0
:200F33008C838DF0E4120E4E8E828F8322C00F85810FE50F24F8FF8F73E50F24FBFF8F6D79
:200F5300756E00756F40E50F24F8F88670088671088672900E93121151AE82AF83E50F245B
:1B0F7300FBF886030886040886058B828C838DF0E4120E4E8E828F83D00F22B4
:200F8E00AAF0FBE5828511F0A4FCADF0E5838511F0A42DFDE435F0FEE5828512F0A42DFD05
:200FAE00E5F03EFEE433FFEA8511F0A42EFEE5F03FFFE5838512F0A42EFEE5F03FFFE58270
:200FCE008513F0A42EFEE5F03FFFEB8511F0A42FFFEA8512F0A42FFFE5838513F0A42FFF50
:0E0FEE00E5828514F0A42F8EF08D838C822274
:200086007800E84400600A790175AF00E4F309D8FC7852E84400600C7901900001E4F0A316
:0400A600D8FCD9FAAF
:0B0FFC007F8E1216B5F58385F082226F
:20100700B98003EA13B34010EA2401FAE43BFBE43CFC50047C800582BC000EBB000BBA002D
:2010270008E4F5F0F583F58222A2D1E582138CF092F78B838A8222E4F583F58275F080F4ED
:0F104700A2D11322E4F583F58275F0C0747F22E5
:20105600C00F85810F120117D00F2285827085837185F072E4F56DF56EF56F8510739010DF
:2010760056021151C00F85810FE50F24FBFF8F73E4F56DF56EF56FE50F24FBF8867008860C
:0D10960071088672901056121151D00F2271
:2010A300AF82C063C064C0651210B08007C061C0628F8222158115811581056BE4B56B0289
:2010C300056C22AF8274302FFF24C6500A74072FFF3000034307208F820210A3E582FFC4FD
:2010E300540FF582C0071210C6D007740F5FF5820210C685821185661285671385681485C2
:201103006915AA6A751620EA2AFAE515235401FF8A064EFAE5122512F512E51333F513E5EB
:201123001433F514E51533F515C3EA95114008EAC39511FA431201E51614FF8F1670C88577
:2011430012668513678514688515698A6A22858261858362856D63856E64856F65E4F56BE0
:20116300F56CAD70AE71AF728D828E838FF0121675FC74012DF570E43EF5718F72ECFF708B
:2011830003021656BF2502800302164EC201C202C203C204C205C206C207C208757400757A
:2011A30075007576FFAA70AB71AE728A828B838EF0121675FFA3AA82AB838A708B718E7250
:2011C300BF25078F821210A38098BF3000402DEF24C6402874FFB57612E57575F00AA42F4A
:2011E300FC24D0F57570C4D20280C0E57675F00AA4FC8F05ED2C24D0F57680AFBF2E0A743A
:20120300FFB576A775760080A2BF6100400CEF248540075307DFD2008002C200BF200280F2
:201223006DBF2B028063BF2D028059BF42028063BF43028068BF44030213F4BF46030214A9
:201243000ABF48030211AEBF49030213F4BF4A030211AEBF4C028040BF4F030213FBBF50D8
:2012630003021389BF5302805ABF54030211AEBF5503021400BF5803021405BF5A03021174
:20128300AE02140ED2010211AED2030211AED2040211AED2060211AED2070211AE30060A45
:2012A300E57314F9897387078011E57324FEFE8E738E018705098706198D078F821210A3FE
:2012C300021417E57324FDFE8E738E01870409870509870619198C668D678E688C828D83F5
:2012E3008EF012165DAD82AE8374FFB576028D76200126C3ED95755020E575C39DF575AEA2
:20130300758E041EEC6010758220C006C0051210A3D005D00680EA8E75AE7685668285674D
:20132300838568F0121675FCFF602F8E041EC374808CF063F08095F050208F82C006C005DC
:201343001210A3D005D006AA66AB67AC680ABA00010B8A668B678C6880C1200103021417AC
:20136300C3ED95754003021417E575C39DF575AE758E041EEC7003021415758220C00612D0
:2013830010A3D00680EBE57324FDFC8C738C01870209870309870419198A668B678C68ACF1
:2013A30068BC800040047F438014BC600040047F50800BBC400040047F4980027F588F82C0
:2013C300C0071210A375823A1210A37582301210A37582781210A3D007BF4902800BBF50ED
:2013E3000280068567821210DF8566821210DF8023D20575740A801C757408801775740A01
:201403008012757410800DD20880098F821210A380028E7530085CE57324FCFE8E738E0159
:2014230087020987030987040987061919198A668B678C688E6975664D756719756880854C
:20144300667885677985687A74012578FAE43579FCAE7A8A668C678E6885788285798385BF
:201463007AF0121675FEFF70030211658F821210A380CCE574700302116575771C30062DA9
:20148300E57314F9897387048C027B007C007E008A668B678C688E69200566AA667B007CFB
:2014A300007E008A668B678C688E698054300721E57324FCFE8E738E018702098703098700
:2014C300040987061919198A668B678C688E698030E57324FEFE8E738E0187040987061965
:2014E300EE3395E0FBFA8C668E678B688A69200510AA66AB677C007E008A668B678C688EDC
:2015030069300522E56930E71BC3E49566FAE49567FBE49568FCE49569FE8A668B678C687E
:201523008E698002C205D209A9777E00756A00857482C006C0011210F6D001D00620090B1B
:20154300E56AC4FCE7FB4CF7198002A76A0EB209E56645674568456970D289778E05E5755E
:201563007003757501200224200121ED04FEAC75C3EE9C5015758220C006C005C004121038
:20158300A3D004D005D0061C80E68C7530050E75822DC0051210A3D00515758023ED602043
:2015A30030030E75822BC0051210A3D0051575800F30040C758220C0051210A3D00515750D
:2015C300200126AE758E041EC3ED9C502F3002067B307C0080047B207C008B82C006C00591
:2015E3001210A3D005D00680DCC3ED95755008E575C39DF575800775750080028E75A977D0
:201603008D068E051EED6026B20920090A09E7C4540FFD8D6A80078705740F5DF56A856AD6
:2016230082C006C0011210C6D001D00680D4200103021165AE758E051EED700302116575FE
:1A1643008220C0061210A3D00680EB8F821210A3021165856B82856C8322C9
:0B194D003C4E4F20464C4F41543E00E2
:18165D00AA82AB831216756003A380F8C3E5829AF582E5839BF5832228
:0D00510075817A1216AFE582600302004E41
:1C16750020F71430F6148883A88220F507E6A88375830022E280F7E49322E02284
:0B169100E4AC82FBFAF974860216A597
:13169C00FCABF0AA83A982749EC2D1F582120E1B021007DC
:0416AF00758200221E
:2016B3007F9E12171D30D103021028C3EF9582500974FFF5F0F583F5822279001216DA89E7
:0716D300828A838BF0EC22F8
:2016DA006040F82582500274FFF582E824F8501ECCCBCAF9E4CC24F85014CBCAF9E4CB2418
:2016FA00F8500BCAF9E4CA24F8500379002224086010F8C3EC13FCEB13FBEA13FAE913F9CB
:03171A00D8F122E1
:12171D00AA82AB83A2F73392D1F5826002D2F7ACF022D1
:00000001FF
