:0400000002001132B7
:03000B000201B03F
:03006A0002000E83
:03000E000200E805
:20006D0075B1677E007F01EE24FFFCEF34FFFD8C068D07EC4D70F0E5B130E7FB75B2882284
:20008D00759850758920758DDCD28E438E10438780D29943A4012275FFDE75FFAD12006D08
:2000AD0012008D43E10443E34022AF8210990280FB8F992210980280FBAF998F82C00712EC
:2000CD0000B7D0078F82222098057582FF800BC2988599821200B7859982221200A47582E2
:2000ED00201200B712019812019E7400C0E07408C0E07480C0E01201E5158115811581121E
:20010D0000C1858208E4F509F50AF58AF58CD28CC3E5099450E50A944640F57429C0E0747F
:20012D0008C0E07480C0E01201E5158115811581C009C00A7445C0E07408C0E07480C0E020
:20014D001201E5E58124FBF581E4F509F50AC3E5099420E50A941C40F57469C0E07408C0CC
:20016D00E07480C0E01201E5158115811581C009C00A7445C0E07408C0E07480C0E0120195
:20018D00E5E58124FBF5810200F722D2A943A88222538EF75389F0438902C28C758A007519
:1401AD008C0022C0E0C0D00509E4B50902050AD0D0D0E0321D
:200800000D48697420616E79206B6579206F6E20746865206B6579626F61726420746F20E3
:200820007374617274200D0A00322E35207365636F6E64732068617665207061737365644B
:200840002E200D0A006F766572666C6F7773207072696E742073746174656D656E74206882
:200860006572653A2025640A000D31207365636F6E64732068617665207061737365642E70
:04088000200D0A003D
:06004000E478FFF6D8FD94
:20001E007900E94400601B7A0090088F780175AF00E493F2A308B8000205AFD9F4DAF275D3
:02003E00AFFF12
:200046007800E84400600A790175AF00E4F309D8FC7800E84400600C7900900001E4F0A3A9
:04006600D8FCD9FAEF
:2001C100C00C85810C1200B7D00C2285823185833285F033E4F52EF52FF530850B349001BA
:2001E100C10202BCC00C85810CE50C24FBFF8F34E4F52EF52FF530E50C24FBF88631088630
:0D020100320886339001C11202BCD00C22DD
:20020E00AF82C024C025C02612021B8007C022C0238F8222158115811581052CE4B52C0288
:20022E00052D22AF8274302FFF24C6500A74072FFF3000034307208F8202020EE582FFC482
:20024E00540FF582C007120231D007740F5FF58202023185820D85270E85280F8529108578
:20026E002A11AA2B751220EA2AFAE511235401FF8A064EFAE50E250EF50EE50F33F50FE52D
:20028E001033F510E51133F511C3EA950D4008EAC3950DFA430E01E51214FF8F1270C8853F
:2002AE000E27850F2885102985112A8A2B22858222858323852E24852F25853026E4F52C06
:2002CE00F52DAD31AE32AF338D828E838FF01207E0FC74012DF531E43EF5328F33ECFF708C
:2002EE00030207C1BF250280030207B9C201C202C203C204C205C206C207C20875350075A5
:20030E0036007537FFAA31AB32AE338A828B838EF01207E0FFA3AA82AB838A318B328E338F
:20032E00BF25078F8212020E8098BF3000402DEF24C6402874FFB53712E53675F00AA42F0E
:20034E00FC24D0F53670C4D20280C0E53775F00AA4FC8F05ED2C24D0F53780AFBF2E0A749A
:20036E00FFB537A775370080A2BF6100400CEF248540075307DFD2008002C200BF20028014
:20038E006DBF2B028063BF2D028059BF42028063BF43028068BF440302055FBF46030205FF
:2003AE0075BF4803020319BF490302055FBF4A03020319BF4C028040BF4F03020566BF509D
:2003CE00030204F4BF5302805ABF5403020319BF550302056BBF5803020570BF5A030203B5
:2003EE0019020579D201020319D203020319D204020319D206020319D20702031930060A51
:20040E00E53414F9893487078011E53424FEFE8E348E018705098706198D078F8212020E40
:20042E00020582E53424FDFE8E348E01870409870509870619198C278D288E298C828D8377
:20044E008EF01207C8AD82AE8374FFB537028D37200126C3ED95365020E536C39DF536AE24
:20046E00368E041EEC6010758220C006C00512020ED005D00680EA8E36AE378527828528CF
:20048E00838529F01207E0FCFF602F8E041EC374808CF063F08095F050208F82C006C00563
:2004AE0012020ED005D006AA27AB28AC290ABA00010B8A278B288C2980C120010302058211
:2004CE00C3ED95364003020582E536C39DF536AE368E041EEC7003020580758220C00612B8
:2004EE00020ED00680EBE53424FDFC8C348C01870209870309870419198A278B288C29AC73
:20050E0029BC800040047F438014BC600040047F50800BBC400040047F4980027F588F82A2
:20052E00C00712020E75823A12020E75823012020E75827812020ED007BF4902800BBF501C
:20054E0002800685288212024A85278212024A8023D20575350A801C753508801775350A25
:20056E008012753510800DD20880098F8212020E80028E3630085CE53424FCFE8E348E019C
:20058E0087020987030987040987061919198A278B288C298E2A7527847528087529808583
:2005AE00273985283A85293B74012539FAE4353AFCAE3B8A278C288E29853982853A8385D5
:2005CE003BF01207E0FEFF70030202D08F8212020E80CCE53570030202D075381830062D9D
:2005EE00E53414F9893487048C027B007C007E008A278B288C298E2A200566AA277B007C58
:20060E00007E008A278B288C298E2A8054300721E53424FCFE8E348E01870209870309871D
:20062E00040987061919198A278B288C298E2A8030E53424FEFE8E348E0187040987061982
:20064E00EE3395E0FBFA8C278E288B298A2A200510AA27AB287C007E008A278B288C298EB6
:20066E002A300522E52A30E71BC3E49527FAE49528FBE49529FCE4952AFE8A278B288C2959
:20068E008E2A8002C205D209A9387E00752B00853582C006C001120261D001D00620090B5E
:2006AE00E52BC4FCE7FB4CF7198002A72B0EB209E52745284529452A70D289388E05E536FA
:2006CE007003753601200224200121ED04FEAC36C3EE9C5015758220C006C005C004120268
:2006EE000ED004D005D0061C80E68C3630050E75822DC00512020ED00515368023ED60209D
:20070E0030030E75822BC00512020ED0051536800F30040C758220C00512020ED005153674
:20072E00200126AE368E041EC3ED9C502F3002067B307C0080047B207C008B82C006C00573
:20074E0012020ED005D00680DCC3ED95365008E536C39DF536800775360080028E36A93890
:20076E008D068E051EED6026B20920090A09E7C4540FFD8D2B80078705740F5DF52B852B37
:20078E0082C006C001120231D001D00680D42001030202D0AE368E051EED70030202D075CC
:1A07AE008220C00612020ED00680EB8F8212020E0202D0852C82852D8322D5
:0B0884003C4E4F20464C4F41543E00BC
:1807C800AA82AB831207E06003A380F8C3E5829AF582E5839BF5832270
:0D00110075813B1207FCE582600302000EC2
:1C07E00020F71430F6148883A88220F507E6A88375830022E280F7E49322E02228
:0407FC0075820022E0
:00000001FF
